:020000040000FA
:10000000181100109D010000AD010000A5010000C5
:1000100000000000000000000000000000000000E0
:10002000000000000000000000000000A701000028
:100030000000000000000000A9010000AB0100006A
:10004000AD010000AD01000000000000FB05000054
:100050001B0700005508000000000000AD01000073
:10006000AD010000AD010000AD010000AD010000D8
:10007000AD010000AD010000AD010000AD010000C8
:10008000AD010000AD010000AD010000AD010000B8
:10009000AD010000AD010000AD0100000000000056
:1000A000AD010000AD010000AD010000AD01000098
:1000B000AD010000AD010000AD010000AD01000088
:1000C00000F002F800F03EF80CA030C80838241800
:1000D0002D18A246671EAB4654465D46AC4201D180
:1000E00000F030F87E460F3E0FCCB6460126334274
:1000F00000D0FB1AA246AB4633431847681A0000EB
:10010000881A0000103A02D378C878C1FAD852078A
:1001100001D330C830C101D504680C6070470000BD
:100120000023002400250026103A01D378C1FBD813
:10013000520700D330C100D50B6070471FB51FBDFB
:1001400010B510BD01F0D2FC1146FFF7F7FF01F02A
:100150008AFB01F0EAFC03B4FFF7F2FF03BC01F0F5
:10016000EBFC000070B505460C46164602E00FCCCD
:100170000FC5103E102EFAD2082E02D303CC03C5B1
:10018000083E042E07D301CC01C5361F03E02178B9
:100190002970641C6D1C761EF9D270BD074880471B
:1001A00007480047FEE7FEE7FEE7FEE7FEE7000040
:1001B00004480549034A054B704700005D040000F0
:1001C000C1000000180F001018110010180F0010C7
:1001D00010B5034608460261002444600360846051
:1001E000641EC46010BD01464868002801D101208A
:1001F00070470020FCE701460A684868904201D138
:10020000012070470020FCE700B502461046FFF7CA
:10021000EAFF00280BD15068401E50609068401CD7
:10022000906011689068884201D10020906000BD04
:1002300000B502461046FFF7D6FF002804D19168AA
:1002400089001069405800BD0020C043FBE710B58D
:1002500003460C461846FFF7CEFF00280FD158681A
:10026000401C5860D868401CD8601968D86888421B
:1002700001D10020D860D96889001869445010BDA8
:10028000034610B50B439B070FD1042A0DD308C8B2
:1002900010C9121FA342F8D018BA21BA884201D956
:1002A000012010BD0020C04310BD002A03D0D30799
:1002B00003D0521C07E0002010BD03780C78401CCE
:1002C000491C1B1B07D103780C78401C491C1B1BC5
:1002D00001D1921EF1D1184610BDD2B210B5130251
:1002E0009A1813049A1801F041FB10BD704770472B
:1002F0007047000000487047B80E0010FFFFFFFF76
:1003000010B500247348406AC005000F030001F0D7
:100310001AFC10090B0D0F11131517191B1D1F21A6
:100320002325272900241DE06B4C1BE06B4C19E0B2
:100330006B4C17E06B4C15E06B4C13E06B4C11E011
:100340006B4C0FE06B4C0DE06B4C0BE06B4C09E021
:100350006B4C07E06B4C05E06B4C03E06B4C01E031
:100360006B4C00BF00BF5B48406AC006800E811C1A
:10037000204601F00EFB044656484030006B8007D3
:10038000800F002806D0012808D0022826D0032894
:1003900059D126E05F486049086054E04D4840303C
:1003A00000688007800F002806D0012808D00228A6
:1003B0000AD0032810D10BE05648574908600BE0DB
:1003C00054485549086007E000205349086003E09D
:1003D00050485149086000BF00BF34E04E480460F7
:1003E00031E03C48403000688007800F002806D08C
:1003F00001280ED0022816D0032822D117E0354854
:100400008068C006C00E401C42494843424908600B
:1004100017E030488068C006C00E401C3D49484384
:100420003D4908600DE000203B49086009E029488B
:100430008068C006C00E401C3649484336490860F3
:1004400000BF00BF00BF00BF22484030816B324870
:10045000006801F09EFA3049086010BD10B51D48D3
:10046000803000682D4908431A4980310860002017
:100470001849403108600120486000BF15484030ED
:100480004068C007C00F0028F8D04120114988609B
:100490002348806B802188432149886300BF0D4831
:1004A000C068C007C00F0028F9D0032009494031B7
:1004B00008630120486300BF06484030406BC00716
:1004C000C00F0028F8D00120024940318863FFF7AF
:1004D00017FF10BD00800440C027090090051000E0
:1004E000C05C1500F0B31A00200B2000009F240010
:1004F000E0322900C0C62D0050973100E06735007A
:100500007038390000093D00401640008023430048
:10051000C0304600001BB70000000010800004003F
:100520000082044000210170418070470120F84999
:10053000C86070470120F64908617047F448C068F8
:1005400004210843F249C8607047F148006904215A
:100550000843EF490861704710B5EE480068000C89
:100560000004EC4908600846006808600846006816
:10057000032149020843E74908600120E649486130
:1005800008460068012189030843E34908600A46D8
:1005900052691201E1235B025A431146DE4A403A96
:1005A000926BDE4B1B685A43104601F0F2F9401E75
:1005B000D749086205200860FFF7B8FF032000F064
:1005C0009FF947210901D64801F0DFF910BD70B548
:1005D00005460C46002D01D0002C00DC70BD2246E3
:1005E0002946D04801F074F9CE49891F0C710020CA
:1005F0004871FFF7A3FF00BFF0E700B5C44880686B
:10060000C007C00F002816D0C1484069C1B2C44815
:1006100042884088401CC24B5880181D8154001FDE
:10062000408821214901884202DB00201946488088
:100630000120BB490870B6488068042108400028A2
:100640001DD0B848801F0079002800D100BDB548F2
:10065000801F41794079401CB24A921F5071901D11
:10066000405CAB49C861104640791146097988421F
:1006700005DBFFF76AFF0020AA49891F087100BF48
:10068000E4E7A948C06804210843A749C860704747
:10069000A548006904210843A34908617047012067
:1006A000A149C860704710B59A4840689F49084002
:1006B0009849486008464068152109020843954951
:1006C0004860084640680B21490408439149486046
:1006D000012091494861084600680121C903084387
:1006E0008D4908600A4652691201E1235B025A43B0
:1006F0001146894A403A926B884B1B685A43104610
:1007000001F047F9401E8849086205200860012071
:10071000C860042000F0F4F810BD00B5824880687D
:10072000C007C00F002816D07F484069C1B280487A
:1007300042884088401C7E4B5880181D8154001F01
:10074000408821214901884202DB00201946488067
:100750000120774908707448806804210840002807
:1007600019D074480079002800D100BD7148417942
:100770004079401C6F4A5071901D405C6A49C861C5
:100780001046407911460979884204DBFFF780FF63
:1007900000206849087100BFE7E770B505460C46C0
:1007A000002D01D0002C00DC70BD22462946614896
:1007B000801D01F08DF85F490C7100204871FFF732
:1007C00060FF00BFF0E75C48C068042108435A4955
:1007D000C8607047584800690421084356490861B9
:1007E000704710B54B48806880B24A498860084617
:1007F00080680121090508434649886008468068E9
:10080000052149060843434988600120424948615F
:10081000084600680121090408433F4908600A4668
:1008200052691201E1235B025A4311463A4A403AA7
:10083000926B3A4B1B685A43104601F0AAF8401ECF
:100840003D490862052008600120C860052000F0CD
:1008500057F810BD00B538488068C007C00F0028A1
:1008600016D035484069C1B2344842884088401C9F
:10087000324B5880181D8154001F408821214901A6
:10088000884202DB00201946488001202B4908706D
:100890002948806804210840002819D02848007998
:1008A000002800D100BD264841794079401C244AE7
:1008B0005071901D405C2049C86110464079114636
:1008C0000979884204DBFFF785FF00201C49087185
:1008D00000BFE7E770B505460C46002D01D0002C9F
:1008E00000DC70BD224629461548801D00F0F0FF4F
:1008F00013490C7100204871FFF765FF00BFF0E756
:10090000C206D20E012191400E4A116070470000CC
:100910000040064000C000408080044000000010FD
:100920000C0000103204001000800640FF0000FFA1
:100930007C0400109C08001000C00640EC08001069
:100940000C0D001000E100E0014605E0002000E091
:10095000401CFC4A9042FBD30A46491E002AF5D1AE
:100960007047F9480068012149020843F6490860C8
:10097000F5488038406849158843F3498039486014
:100980000846406849150843EF498039486000200F
:10099000EE4908607047EE494143EC4AD16000BF20
:1009A000EA490968022211400029F9D0E74909689B
:1009B0001143E64A11607047002904D1E54A1268E4
:1009C0008243E44B1A60012904D1E24A12680243CF
:1009D000E04B1A607047002904D1DF4A1268824355
:1009E000DD4B1A60012904D1DB4A12680243DA4B5D
:1009F0001A60704700B501218806FFF7ECFF01215E
:100A0000C806FFF7E8FF01210806FFF7E4FF012110
:100A10004806FFF7E0FF01218806FFF7CDFF01211F
:100A2000C806FFF7C9FF01210806FFF7C5FF01212E
:100A30004806FFF7C1FF00BD00B501218020FFF788
:100A4000CAFF01210802FFF7C6FF0021FF20013085
:100A5000FFF7B2FF01218020FFF7AEFF00BD00B518
:100A600001214804FFF7B7FF01218804FFF7B3FF16
:100A70000121C804FFF7AFFF002101204004FFF768
:100A80009BFF01218804FFF797FF0121C804FFF7AE
:100A900093FF00BD00B501210803FFF79CFF002173
:100AA00001200003FFF788FF00BD00B5A6480068DD
:100AB00040210843A4490860084600688021084393
:100AC000A1490860FFF7E6FFFFF7C9FFFFF7B4FF92
:100AD000FFF790FF00BD10B5A048007801280AD1AB
:100AE0001420FFF731FF9D484188001DFFF7F2FEFB
:100AF0009A48FFF717FD10BD10B5994800780128F6
:100B00000DD16420FFF720FF95484188001DFFF7B5
:100B10005EFD0A20FFF718FF9148FFF703FD10BDA7
:100B200010B50446002C04DD01210803FFF744FF43
:100B300004E0002101200003FFF73EFF10BD00B5D7
:100B40000120FFF7EDFF7D20C000FFF7FDFE002034
:100B5000FFF7E6FF7D20C000FFF7F6FE00BD10B5F1
:100B60000446002C05DD002101204004FFF724FF8E
:100B700003E001214804FFF71FFF10BD10B5044634
:100B8000002C05DD002101208004FFF715FF03E0A4
:100B900001218804FFF710FF10BD10B50446002C9A
:100BA00005DD00210120C004FFF706FF03E001215D
:100BB000C804FFF701FF10BD00B50120FFF7CFFF0C
:100BC0000120FFF7DBFF0120FFF7E7FF6420FFF7BD
:100BD000BBFE0020FFF7C3FF0020FFF7CFFF002080
:100BE000FFF7DBFF6420FFF7AFFE00BD10B5044642
:100BF000002C06D0012C0ED0022C16D0032C26D1AE
:100C00001CE00021FF200130FFF7D6FE00218020EC
:100C1000FFF7D2FE25E00021FF200130FFF7CCFED8
:100C200001218020FFF7C8FE1BE001210802FFF729
:100C3000C3FE00218020FFF7BFFE12E00121080261
:100C4000FFF7BAFE01218020FFF7B6FE09E0002180
:100C5000FF200130FFF7B0FE00218020FFF7ACFE3F
:100C600000BF00BF10BD00B50020FFF7BFFF7D2013
:100C7000C000FFF769FE0320FFF7B8FF7D20C0002A
:100C8000FFF762FE00BD10B534480078012807D197
:100C900032484188001DFFF79AFC3048FFF742FCBC
:100CA00010BD10B52F480078012807D12D48418884
:100CB000001DFFF772FD2B48FFF734FC10BD10B587
:100CC0002748007801280AD10A20FFF73DFE244872
:100CD0004188001DFFF7FEFD2148FFF723FC10BDF2
:100CE00008B521A00068009001216846FFF76FFC5D
:100CF0000120FFF729FE08BD08B51BA00068009081
:100D000001216846FFF749FD0120FFF71DFE08BDE0
:100D100008B515A00068009001216846FFF7DAFDCC
:100D20000120FFF711FE08BD00B500210120C0061B
:100D3000FFF742FE1420FFF707FE0121C806FFF768
:100D40003BFE00BD6109000080800440008000403F
:100D5000EE020000002100A0002000A00C00001006
:100D6000EC0800107C0400100100000000B57D209C
:100D7000C000FFF7E9FDFFF7D7FF7D20C000FFF7B8
:100D8000E3FD00BD00B5002101208006FFF714FE41
:100D9000FE48FFF7D9FD01218806FFF70DFE00BDD3
:100DA00000B5FFF7EFFF00BD08B5F9A0006800909F
:100DB00001216846FFF78EFD0120FFF7C5FD08BD44
:100DC00000B500210120C006FFF7F6FDFA20FFF76D
:100DD000BBFD0121C806FFF7EFFD00BD00B57D207A
:100DE000C000FFF7B1FDFFF7EBFF7D20C000FFF76C
:100DF000ABFD00BD08B5E7A0006800900121684682
:100E0000FFF768FD0120FFF79FFD08BD3EB5E2A298
:100E100007CA6B4607C300240020E249087000BFE0
:100E200047210901E04800F0B0FD0A216846FFF7BC
:100E3000B4FCDE48FFF788FD002416E0DA48001D08
:100E4000005D3A280FD1D848001DA11C405C312814
:100E500009D1D548001D211D405C312803D1012056
:100E6000D049087005E0601CC4B2CF484088A04259
:100E7000E4DC00BFCB4800780028D1D03EBD10B5DF
:100E800002460B46002100BF07E0505C5C5CA042BC
:100E900001D0012010BD481CC1B20329F5D30020A8
:100EA000F8E700B587B0C2A103C906910590C2A3B7
:100EB0000FCB049301AB07C300BF47210901BA4818
:100EC00000F063FD062105A8FFF767FC7D20C00048
:100ED000FFF73AFDB449091D01A8FFF7D0FF00282C
:100EE00003D10220AF49087003E0AE480078012822
:100EF000E3D000BF07B000BD00B587B0B2A30FCBF1
:100F0000069303AB07C3B4A103C90291019000BFCC
:100F100047210901A44800F038FD0C2103A8FFF780
:100F20003CFC7D20C000FFF70FFD9F49091D01A873
:100F3000FFF7A5FF002803D103209A49087003E0BA
:100F4000984800780228E3D000BF07B000BD00B584
:100F500087B0A3A30FCB069303AB07C39EA103C91E
:100F60000291019000BF472109018F4800F00DFD5B
:100F70000E2103A8FFF711FC9D48FFF7E5FC8A4905
:100F8000091D01A8FFF77BFF002803D10420854934
:100F9000087003E0834800780328E4D000BF07B05E
:100FA00000BD00B591B0282292A107A8FFF7DAF89A
:100FB00018229AA101A8FFF7D5F800BF472109011F
:100FC000794800F0E2FC262107A8FFF7E6FB8848F5
:100FD000FFF7BAFC7449091D01A8FFF750FF00286C
:100FE00003D105206F49087003E06E48007804289B
:100FF000E4D000BF11B000BD00B587B014228DA1B0
:1010000002A8FFF7AFF874A103C90191009000BFD7
:1010100047210901644800F0B8FC112102A8FFF73C
:10102000BCFB7D20C000FFF78FFC5F49091D6846AF
:10103000FFF725FF002803D106205A49087003E076
:10104000584800780528E3D000BF07B000BD00B5C0
:1010500087B07DA30FCB069303AB07C35EA103C983
:101060000291019000BF472109014F4800F08DFC1B
:101070000F2103A8FFF791FB7D20C000FFF764FC60
:101080004949091D01A8FFF7FAFE002803D10720EE
:101090004449087003E0434800780628E3D000BFC5
:1010A00007B000BD3F480078072802D108203D491D
:1010B000087070470FB568A30FCB03936B4607C347
:1010C0000FBD10B5374800210170FFF79FFEFFF7F5
:1010D000E8FEFFF711FFFFF73AFFFFF762FFFFF7A8
:1010E0008BFFFFF7B4FFFFF7DDFF10BD10B5042045
:1010F0002C490870FFF755FFFFF77EFFFFF7A7FFAA
:10110000FFF7D0FF10BD10B52748007801280FD198
:101110002448007808280BD10A20FFF715FC224844
:101120004188001DFFF739FB00201F4908704880E7
:1011300010BD10B504464C480068000C00044A4934
:1011400008600846006808600846006803214902F4
:101150000843454908600120444948610846006841
:10116000012189030843414908600A465269120176
:10117000624311463D4A403A926B3D4B1B685A43CD
:10118000104600F006FC401E3A4975E0AC0D000028
:101190000A0000000B00000041542B435245473F1A
:1011A0000D0A0000040000107C04001088130000E9
:1011B000415445300D0A0000415445300D0A0D0AD6
:1011C0004F4B0D0A0000000041542B43474154543B
:1011D0003D310D0A000000000D0A4F4B0D0A0000C2
:1011E00041542B43474143543D312C310D0A0000FB
:1011F000B80B000041542B43495053544152543DC5
:101200005443502C3132302E35352E3131372E317A
:1012100030382C31303030300D0A00000D0A434F89
:101220004E4E454354204F4B0D0A0D0A4F4B0D0AAD
:101230000000000041542B434950544346473D327F
:101240002C31300D0A00000041542B434950544DBD
:101250004F44453D310D0A0041542B434950434C06
:101260004F53450D0A00000000C00040808004403C
:101270000000001000400640086205200860FFF7EB
:1012800055F9032001218140FA4A116000BF47212E
:101290000901F94800F079FB10BD08B5F7A0006816
:1012A000009003216846FFF792F908BD10B50320AE
:1012B000FFF79CFC4B20C001FFF73BFF10BD08B5BA
:1012C000EEA0006800900521ED4800F05EFBFF20D5
:1012D000F530FFF739FBFFF7E9FFFF20F530FFF7A7
:1012E00033FB03216846FFF772F91420FFF72CFB4C
:1012F000E1480078012811D1DF480079C02809D1E0
:101300000422DD49491DDE4800F0E2FADA48807A1D
:10131000DB490871D848FFF705F906E00521D848F0
:10132000FFF7D8FAD448FFF7FDF808BD1CB5D5A1E2
:1013300003C90191009008216846FFF748F91CBDD8
:1013400008B5D2A00068009003216846FFF73FF976
:1013500008BD10B57D20C000FFF7F6FAFFF79DFF2E
:1013600010BD10B57D20C000FFF7EEFAFFF7DEFFDD
:1013700010BD704710B50120FFF738FCE120400296
:10138000FFF7D7FE10BD7FB58AB0044615461E464E
:101390002821684600F0FBFA04222146684600F046
:1013A00097FA08A8017B6846017132462946401D1C
:1013B00000F08EFA25216846FFF709F90EB070BDDE
:1013C00030B589B0B2A00068089028242022B1A1CD
:1013D0006846FEF7C7FE2025FFF7CCFF2B466A467E
:1013E000214608A8FFF7CFFF7D20C000FFF7ACFA29
:1013F00009B030BD10B50020FFF7F8FBE120400236
:10140000FFF797FE10BD30B589B0A1A00068089025
:10141000282420229FA16846FEF7A4FE2025FFF77E
:10142000E9FF2B466A46214608A8FFF7ACFF7D205E
:10143000C000FFF789FA09B030BD38B504469DA059
:101440000068009005228E492046FEF719FF00280B
:1014500008D120462A3002226946FEF711FF0028F3
:1014600000D138BD0120FCE710B58CB004462C211A
:1014700001A800F08CFA0522814901A800F028FAA1
:10148000E2B2252102A80130FEF727FF00BF0A21A2
:101490000BA8023041700D2008A9887300BF2C21D1
:1014A00001A8FFF717FA0CB010BD70B504460D4641
:1014B000002C01D0002D01D1022070BD2046FFF785
:1014C000BCFF002806D12C222146284600F000FA55
:1014D0000020F2E70120F0E710B58AB00446002CA6
:1014E00002D102200AB010BD2522611D684600F01D
:1014F000EFF925216846FFF76AF80020F2E730B5DA
:101500008BB005460024002D01D10BB030BD6946DB
:101510002846FFF7CAFF0446002C00D007E06846C3
:10152000FFF7DAFF0446002C00D000E0EDE720468C
:10153000FFF79AFF00BFE8E770B500245E48007827
:1015400001282ED16420FFF7FFF900BF0CE05A49B3
:10155000091D0819FFF771FF002803D121465748DC
:10156000FEF775FE601C84B255488442EFDB0EE046
:101570005248FEF75DFE5049091D45182846FFF701
:10158000BEFF4E48FEF740FE5020FFF7DDF94B4806
:10159000FEF729FE0028EBD047210901464800F05C
:1015A000F4F970BD1CB500BF02216846C17000216E
:1015B00081704170017000BF282069460871FF22C8
:1015C00064214048FEF789FE052269463D48FEF742
:1015D000C9FD1CBD70B50546002400BF0CE0A0008D
:1015E0002018384A811805222846FEF749FE0028AF
:1015F00000D170BD601CC4B2142CF0DB0120F8E7F0
:1016000070B504460D46002C01D0002D01D10220FA
:1016100070BD2046FFF7DEFF002806D125222146B7
:10162000284600F055F90020F2E70120F0E710B558
:101630008CB00446002C02D102200CB010BD052253
:101640000F4901A800F044F92522214602A80130E3
:1016500000F03EF900BF0A210BA8023041700D20B6
:1016600008A9887300BF2C2101A8FFF733F90020D7
:10167000E3E7000000E100E00C000010C1C1C10080
:1016800005000010C0000000013A11DCC3C3C30014
:1016900000000002000102030405060708090A0B06
:1016A0000C0D0E0F101112131415161718191A1B02
:1016B0001C1D1E1F0D0A0000EC080010C00D0010BC
:1016C000F50300005C0D001030B58BB004460D46EC
:1016D000282101A800F05BF90422294601A800F0A6
:1016E000F7F8287969460872E2B2202102A8013091
:1016F000FEF7F3FD252101A8FEF769FF0BB030BD11
:1017000030B58BB005460024002D01D10BB030BDA3
:1017100001A92846FFF774FF0446002C00D007E01B
:1017200001A8FFF784FF0446002C00D000E0EDE79D
:1017300001A92046FFF7C8FF00BFE7E770B5002406
:101740005748007801282FD11420FFF7FDF800BF7B
:101750000CE05349091D0819FFF73CFF002803D18D
:1017600021465048FEF773FD601C84B2FF208000C4
:101770008442EEDB0EE04B48FEF75AFD4849091D56
:1017800045182846FFF7BCFF4648FEF73DFD0A20F6
:10179000FFF7DAF84348FEF726FD0028EBD0472193
:1017A00009013F4800F0F1F870BD00B591B0182272
:1017B0003DA16846FEF7D6FC00BF01216846C17610
:1017C000002181764176017600BF112069460877B5
:1017D00000BF022106A801720021C17181710020A1
:1017E0006946487700BF282106A8417200BF7821CA
:1017F0004173562101733421C1721221817200BFDD
:1018000000BF5921C1735621817300BF01210174AA
:10181000417416226946123000F05AF800BFFF21C9
:1018200008A80230C177EE21817700BF00BF0A21EE
:10183000203041700D2010A9887000BF2C2106A80F
:10184000FFF748F81E48FFF77FF811B000BD10B54C
:101850001C4A1D491820FEF7BBFC1C4A11491C20DC
:10186000FEF7B6FC10BDFEF7F9FD6420FFF76CF83B
:10187000FFF71BF9FFF775F8FEF76EFEFEF713FF93
:10188000FEF7AFFFFFF7E3FFFFF719FDFFF78AFE53
:10189000FFF7B0FD03E0FFF74FFEFFF74FFFFAE75A
:1018A0000C000010D40D001000010203040506070F
:1018B00008090A0B0C0D0E0F10111213141500005D
:1018C00010270000E80D0010C00D0010480E001099
:1018D000F8B5042A2CD3830712D00B78491C037067
:1018E000401C521E83070BD00B78491C0370401C10
:1018F000521E830704D00B78491C0370401C521EF3
:101900008B079B0F05D0C91ADF002023DE1B08C9F7
:101910000AE0FEF727FCF8BD1D4608C9FD401C463D
:10192000B4402C4310C0121F042AF5D2F308C91A80
:10193000521EF0D40B78491C0370401C521EEAD48E
:101940000B78491C0370401C012AE4D4097801700B
:10195000F8BD01E004C0091F0429FBD28B0701D5A3
:101960000280801CC90700D00270704700290BD08C
:10197000C30702D00270401C491E022904D383070A
:1019800002D50280801C891EE3E70022EEE70022D8
:10199000DFE7002203098B422CD3030A8B4211D3C9
:1019A00000239C464EE003460B433CD400224308F0
:1019B0008B4231D303098B421CD3030A8B4201D3E0
:1019C00094463FE0C3098B4201D3CB01C01A524178
:1019D00083098B4201D38B01C01A524143098B42C8
:1019E00001D34B01C01A524103098B4201D30B01B1
:1019F000C01A5241C3088B4201D3CB00C01A5241D6
:101A000083088B4201D38B00C01A524143088B429A
:101A100001D34B00C01A5241411A00D20146524133
:101A2000104670475DE0CA0F00D04942031000D352
:101A30004042534000229C4603098B422DD3030AA7
:101A40008B4212D3FC22890112BA030A8B420CD3B7
:101A5000890192118B4208D3890192118B4204D3E0
:101A600089013AD0921100E08909C3098B4201D360
:101A7000CB01C01A524183098B4201D38B01C01A9A
:101A8000524143098B4201D34B01C01A5241030911
:101A90008B4201D30B01C01A5241C3088B4201D3C0
:101AA000CB00C01A524183088B4201D38B00C01A6D
:101AB0005241D9D243088B4201D34B00C01A524144
:101AC000411A00D20146634652415B10104601D3D1
:101AD0004042002B00D54942704763465B1000D35B
:101AE000404201B50020C046C04602BD7546FEF723
:101AF00001FCAE46050069465346C008C000854655
:101B000018B020B5FEF754FB60BC00274908B64664
:101B10000026C0C5C0C5C0C5C0C5C0C5C0C5C0C5FC
:101B2000C0C5403D49008D4670470446C046C0468A
:101B30002046FEF710FB000001491820ABBEFEE76F
:101B400026000200704730B47446641E2578641C79
:101B5000AB4204D3635D5B00E31830BC18471D46FD
:101B6000F8E70000841B0000000000100C000000DB
:101B700004010000901B00000C0000100C1100007C
:101B80002001000000366E0100000000000000008F
:040000050000019D59
:00000001FF
