:020000040000FA
:10000000181100109D010000AD010000A5010000C5
:1000100000000000000000000000000000000000E0
:10002000000000000000000000000000A701000028
:100030000000000000000000A9010000AB0100006A
:10004000AD010000AD01000000000000FB05000054
:100050001B0700005508000000000000AD01000073
:10006000AD010000AD010000AD010000AD010000D8
:10007000AD010000AD010000AD010000AD010000C8
:10008000AD010000AD010000AD010000AD010000B8
:10009000AD010000AD010000AD0100000000000056
:1000A000AD010000AD010000AD010000AD01000098
:1000B000AD010000AD010000AD010000AD01000088
:1000C00000F002F800F03EF80CA030C80838241800
:1000D0002D18A246671EAB4654465D46AC4201D180
:1000E00000F030F87E460F3E0FCCB6460126334274
:1000F00000D0FB1AA246AB4633431847AC160000AB
:10010000CC160000103A02D378C878C1FAD852074A
:1001100001D330C830C101D504680C6070470000BD
:100120000023002400250026103A01D378C1FBD813
:10013000520700D330C100D50B6070471FB51FBDFB
:1001400010B510BD01F0F0FA1146FFF7F7FF01F00E
:10015000D7F801F008FB03B4FFF7F2FF03BC01F08E
:100160000DFB000070B505460C46164602E00FCCAC
:100170000FC5103E102EFAD2082E02D303CC03C5B1
:10018000083E042E07D301CC01C5361F03E02178B9
:100190002970641C6D1C761EF9D270BD074880471B
:1001A00007480047FEE7FEE7FEE7FEE7FEE7000040
:1001B00004480549034A054B704700005D040000F0
:1001C000C1000000180F001018110010180F0010C7
:1001D000014605E0002000E0401C194A9042FBD394
:1001E0000A46491E002AF5D17047164800680121C9
:1001F000490208431349086012488038406849158D
:1002000088431049803948600846406849150843CA
:100210000C498039486000200B49086070470B4941
:100220004143094AD16000BF0749096802221140D1
:100230000029F9D0044909681143034A1160704745
:10024000610900008080044000800040EE02000050
:10025000002904D1184A12688243174B1A600129F9
:1002600004D1154A12680243134B1A6070470029E3
:1002700004D1124A12688243104B1A60012904D13A
:100280000E4A126802430D4B1A60704710B50C48B5
:100290000068402108430A49086008460068802138
:1002A00008430749086001F0DBF801F0E4F800F0CA
:1002B00009F801F0B3F810BD002100A0002000A053
:1002C0008080044010B501218020FFF7D0FF01217C
:1002D0000802FFF7CCFF0021FF200130FFF7B8FF35
:1002E00001218020FFF7B4FF10BDD2B210B5130278
:1002F0009A1813049A1801F054F910BDFFFFFFFF7C
:1003000010B500247348406AC005000F030001F0D7
:100310003CFA10090B0D0F11131517191B1D1F2186
:100320002325272900241DE06B4C1BE06B4C19E0B2
:100330006B4C17E06B4C15E06B4C13E06B4C11E011
:100340006B4C0FE06B4C0DE06B4C0BE06B4C09E021
:100350006B4C07E06B4C05E06B4C03E06B4C01E031
:100360006B4C00BF00BF5B48406AC006800E811C1A
:10037000204601F029F9044656484030006B8007BA
:10038000800F002806D0012808D0022826D0032894
:1003900059D126E05F486049086054E04D4840303C
:1003A00000688007800F002806D0012808D00228A6
:1003B0000AD0032810D10BE05648574908600BE0DB
:1003C00054485549086007E000205349086003E09D
:1003D00050485149086000BF00BF34E04E480460F7
:1003E00031E03C48403000688007800F002806D08C
:1003F00001280ED0022816D0032822D117E0354854
:100400008068C006C00E401C42494843424908600B
:1004100017E030488068C006C00E401C3D49484384
:100420003D4908600DE000203B49086009E029488B
:100430008068C006C00E401C3649484336490860F3
:1004400000BF00BF00BF00BF22484030816B324870
:10045000006801F0B9F83049086010BD10B51D48BA
:10046000803000682D4908431A4980310860002017
:100470001849403108600120486000BF15484030ED
:100480004068C007C00F0028F8D04120114988609B
:100490002348806B802188432149886300BF0D4831
:1004A000C068C007C00F0028F9D0032009494031B7
:1004B00008630120486300BF06484030406BC00716
:1004C000C00F0028F8D00120024940318863FFF7AF
:1004D00017FF10BD00800440C027090090051000E0
:1004E000C05C1500F0B31A00200B2000009F240010
:1004F000E0322900C0C62D0050973100E06735007A
:100500007038390000093D00401640008023430048
:10051000C0304600001BB70000000010800004003F
:100520000082044000210170418070470120F84999
:10053000C86070470120F64908617047F448C068F8
:1005400004210843F249C8607047F148006904215A
:100550000843EF490861704710B5EE480068000C89
:100560000004EC4908600846006808600846006816
:10057000032149020843E74908600120E649486130
:1005800008460068012189030843E34908600A46D8
:1005900052691201E1235B025A431146DE4A403A96
:1005A000926BDE4B1B685A43104601F00DF8401E5B
:1005B000D749086205200860FFF7B8FF032000F064
:1005C0009FF947210901D64800F0FAFF10BD70B528
:1005D00005460C46002D01D0002C00DC70BD2246E3
:1005E0002946D04800F08FFFCE49891F0C710020AA
:1005F0004871FFF7A3FF00BFF0E700B5C44880686B
:10060000C007C00F002816D0C1484069C1B2C44815
:1006100042884088401CC24B5880181D8154001FDE
:10062000408821214901884202DB00201946488088
:100630000120BB490870B6488068042108400028A2
:100640001DD0B848801F0079002800D100BDB548F2
:10065000801F41794079401CB24A921F5071901D11
:10066000405CAB49C861104640791146097988421F
:1006700005DBFFF76AFF0020AA49891F087100BF48
:10068000E4E7A948C06804210843A749C860704747
:10069000A548006904210843A34908617047012067
:1006A000A149C860704710B59A4840689F49084002
:1006B0009849486008464068152109020843954951
:1006C0004860084640680B21490408439149486046
:1006D000012091494861084600680121C903084387
:1006E0008D4908600A4652691201E1235B025A43B0
:1006F0001146894A403A926B884B1B685A43104610
:1007000000F062FF401E8849086205200860012051
:10071000C860042000F0F4F810BD00B5824880687D
:10072000C007C00F002816D07F484069C1B280487A
:1007300042884088401C7E4B5880181D8154001F01
:10074000408821214901884202DB00201946488067
:100750000120774908707448806804210840002807
:1007600019D074480079002800D100BD7148417942
:100770004079401C6F4A5071901D405C6A49C861C5
:100780001046407911460979884204DBFFF780FF63
:1007900000206849087100BFE7E770B505460C46C0
:1007A000002D01D0002C00DC70BD22462946614896
:1007B000801D00F0A8FE5F490C7100204871FFF712
:1007C00060FF00BFF0E75C48C068042108435A4955
:1007D000C8607047584800690421084356490861B9
:1007E000704710B54B48806880B24A498860084617
:1007F00080680121090508434649886008468068E9
:10080000052149060843434988600120424948615F
:10081000084600680121090408433F4908600A4668
:1008200052691201E1235B025A4311463A4A403AA7
:10083000926B3A4B1B685A43104600F0C5FE401EAF
:100840003D490862052008600120C860052000F0CD
:1008500057F810BD00B538488068C007C00F0028A1
:1008600016D035484069C1B2344842884088401C9F
:10087000324B5880181D8154001F408821214901A6
:10088000884202DB00201946488001202B4908706D
:100890002948806804210840002819D02848007998
:1008A000002800D100BD264841794079401C244AE7
:1008B0005071901D405C2049C86110464079114636
:1008C0000979884204DBFFF785FF00201C49087185
:1008D00000BFE7E770B505460C46002D01D0002C9F
:1008E00000DC70BD224629461548801D00F00BFE35
:1008F00013490C7100204871FFF765FF00BFF0E756
:10090000C206D20E012191400E4A116070470000CC
:100910000040064000C000408080044000000010FD
:100920000C0000103204001000800640FF0000FFA1
:100930007C0400109C08001000C00640EC08001069
:100940000C0D001000E100E010B5FE480078012811
:100950000AD11420FFF73CFCFA484188001DFFF73C
:10096000B9FFF848FFF7DEFD10BD10B5F648007876
:1009700001280DD16420FFF72BFCF3484188001DAE
:10098000FFF725FE0A20FFF723FCEF48FFF7CAFD1B
:1009900010BD10B50446002C04DD01210803FFF74B
:1009A00057FC04E0002101200003FFF751FC10BDBB
:1009B00010B50120FFF7EDFF7D20C000FFF708FC18
:1009C0000020FFF7E6FF7D20C000FFF701FC10BD0F
:1009D00010B50446002C05DD002101204004FFF77E
:1009E00037FC03E001214804FFF732FC10BD10B5CD
:1009F0000446002C05DD002101208004FFF728FCBF
:100A000003E001218804FFF723FC10BD10B5044664
:100A1000002C05DD00210120C004FFF719FC03E0D4
:100A20000121C804FFF714FC10BD10B50120FFF729
:100A3000CFFF0120FFF7DBFF0120FFF7E7FF642076
:100A4000FFF7C6FB0020FFF7C3FF0020FFF7CFFF33
:100A50000020FFF7DBFF6420FFF7BAFB10BD10B5E5
:100A60000446002C06D0012C0ED0022C16D0032CEC
:100A700026D11CE00021FF200130FFF7E9FB002117
:100A80008020FFF7E5FB25E00021FF200130FFF784
:100A9000DFFB01218020FFF7DBFB1BE001210802C7
:100AA000FFF7D6FB00218020FFF7D2FB12E00121E7
:100AB0000802FFF7CDFB01218020FFF7C9FB09E009
:100AC0000021FF200130FFF7C3FB00218020FFF74A
:100AD000BFFB00BF00BF10BD10B50020FFF7BFFF78
:100AE0007D20C000FFF774FB0320FFF7B8FF7D20D7
:100AF000C000FFF76DFB10BD10B5924800780128CB
:100B000007D190484188001DFFF761FD8D48FFF730
:100B100009FD10BD10B58D480078012807D18B481C
:100B20004188001DFFF739FE8848FFF7FBFC10BD28
:100B300010B58548007801280AD10A20FFF748FB44
:100B400081484188001DFFF7C5FE7F48FFF7EAFC9A
:100B500010BD08B57EA00068009001216846FFF72F
:100B600036FD0120FFF734FB08BD08B578A000680A
:100B7000009001216846FFF710FE0120FFF728FBD7
:100B800008BD08B572A00068009001216846FFF713
:100B9000A1FE0120FFF71CFB08BD10B500210120BC
:100BA000C006FFF755FB1420FFF712FB0121C80612
:100BB000FFF74EFB10BD10B57D20C000FFF708FB0E
:100BC000FFF7EBFF7D20C000FFF702FB10BD10B563
:100BD000002101208006FFF73BFB5E48FFF7F8FA93
:100BE00001218806FFF734FB10BD10B5FFF7EFFFBA
:100BF00010BD08B558A00068009001216846FFF7B5
:100C000069FE0120FFF7E4FA08BD10B500210120BC
:100C1000C006FFF71DFBFA20FFF7DAFA0121C8062C
:100C2000FFF716FB10BD10B57D20C000FFF7D0FA0E
:100C3000FFF7EBFF7D20C000FFF7CAFA10BD08B533
:100C400046A00068009001216846FFF743FE01209E
:100C5000FFF7BEFA08BD10B53C48007801280FD157
:100C60003F48007808280BD10A20FFF7B1FA37482F
:100C70004188001DFFF791FD00203449087048802D
:100C800010BD10B5044637480068000C0004354913
:100C900008600846006808600846006803214902A9
:100CA00008433049086001202F4948610846006820
:100CB0000121890308432C4908600A465269120140
:100CC00062431146284A403A926B284B1B685A43AC
:100CD000104600F079FC401E254908620520086096
:100CE000FFF724FC032001218140224A116000BF4C
:100CF00047210901134800F063FC10BD08B51EA090
:100D00000068009003216846FFF761FC08BD10B53C
:100D10000320FFF7A4FE4B20C001FFF7B2FF10BD78
:100D200008B515A0006800900521144800F048FCA3
:100D3000FF20F530FFF74CFAFFF7E9FFFF20F53011
:100D40001EE000000C000010EC0800107C040010F5
:100D500001000000AC0D00000A0000000B000000C4
:100D60000900001000C00040808004400000001016
:100D70000040064000E100E0C1C1C10004000010D5
:100D8000FFF726FA03216846FFF721FC1420FFF73E
:100D90001FFAFA480078012811D1F8480079C028D4
:100DA00009D10422F549491DF54800F0ACFBF34890
:100DB000807AF3490871F148FFF7B4FB06E005219A
:100DC000EF48FFF787FDED48FFF7ACFB08BD1CB50A
:100DD000ECA103C90191009008216846FFF7F7FBD9
:100DE0001CBD08B5E9A00068009003216846FFF724
:100DF000EEFB08BD10B57D20C000FFF7E9F9FFF755
:100E00007DFF10BD10B57D20C000FFF7E1F9FFF7B1
:100E1000DEFF10BD704710B50120FFF720FEE12076
:100E20004002FFF72EFF10BD7FB58AB0044615467D
:100E30001E462821684600F0C5FB0422214668466C
:100E400000F061FB08A8017B684601713246294623
:100E5000401D00F058FB25216846FFF7B8FB0EB097
:100E600070BD30B589B0CAA000680890282420223F
:100E7000C8A16846FFF776F92025FFF7CCFF2B467F
:100E80006A46214608A8FFF7CFFF7D20C000FFF784
:100E90009FF909B030BD10B50020FFF7E0FDE1205B
:100EA0004002FFF7EEFE10BD30B589B0B8A0006873
:100EB000089028242022B7A16846FFF753F920257F
:100EC000FFF7E9FF2B466A46214608A8FFF7ACFF6B
:100ED0007D20C000FFF77CF909B030BD38B504466D
:100EE000B4A0006800900522A549204600F0DEFA73
:100EF000002808D120462A300222694600F0D6FA9E
:100F0000002800D138BD0120FCE710B58CB00446A4
:100F10002C2101A800F056FB0522994901A800F0F8
:100F2000F2FAE2B2252102A80130FFF7DEF900BF94
:100F30000A210BA8023041700D2008A9887300BF58
:100F40002C2101A8FFF7C6FC0CB010BD70B50446FB
:100F50000D46002C01D0002D01D1022070BD20468D
:100F6000FFF7BCFF002806D12C222146284600F0BE
:100F7000CAFA0020F2E70120F0E710B58AB0044673
:100F8000002C02D102200AB010BD2522611D684646
:100F900000F0B9FA25216846FFF719FB0020F2E7B7
:100FA00030B58BB005460024002D01D10BB030BD0B
:100FB00069462846FFF7CAFF0446002C00D007E028
:100FC0006846FFF7DAFF0446002C00D000E0EDE7AA
:100FD0002046FFF79AFF00BFE8E770B50024764887
:100FE000007801282ED16420FFF7F2F800BF0CE052
:100FF0007149091D0819FFF771FF002803D1214627
:101000006E4800F0F2F9601C84B26D488442EFDB58
:101010000EE06A4800F0DAF96749091D45182846CC
:10102000FFF7BEFF654800F0BDF95020FFF7D0F88C
:10103000624800F0A6F90028EBD0472109015E487C
:1010400000F0BEFA70BD1CB500BF02216846C17039
:10105000002181704170017000BF2820694608712D
:10106000FF2264215748FFF740F905226946554899
:10107000FFF778F81CBD70B50546002400BF0CE0F2
:10108000A00020184F4A81180522284600F00EFAC9
:10109000002800D170BD601CC4B2142CF0DB01200C
:1010A000F8E770B504460D46002C01D0002D01D1A3
:1010B000022070BD2046FFF7DEFF002806D1252262
:1010C0002146284600F01FFA0020F2E70120F0E751
:1010D00010B58CB00446002C02D102200CB010BD1B
:1010E0000522274901A800F00EFA2522214602A870
:1010F000013000F008FA00BF0A210BA8023041704D
:101100000D2008A9887300BF2C2101A8FFF7E2FB7E
:101110000020E3E730B58BB004460D46282101A836
:1011200000F050FA0422294601A800F0ECF92879D1
:1011300069460872E2B2202102A80130FFF7D5F813
:10114000252101A8FFF743FA0BB030BD30B58BB0B5
:1011500005460024002D01D10BB030BD01A9284661
:10116000FFF79FFF0446002C00D02EE001A8FFF7F8
:10117000AFFF0446002C27D027E000000C00001031
:1011800004000010C0000000013A11DCC3C3C3001A
:1011900000000002000102030405060708090A0B0B
:1011A0000C0D0E0F101112131415161718191A1B07
:1011B0001C1D1E1F0D0A0000EC080010C00D0010C1
:1011C000F50300005C0D0010C6E701A92046FFF7FB
:1011D000A1FF00BFC0E770B500245848007801287F
:1011E0002FD11420FEF7F4FF00BF0CE05349091D76
:1011F0000819FFF740FF002803D12146504800F0AE
:10120000F4F8601C84B2FF2080008442EEDB0EE024
:101210004B4800F0DBF84949091D45182846FFF7FF
:1012200095FF474800F0BEF80A20FEF7D1FF44487A
:1012300000F0A7F80028EBD0472109013F4800F053
:10124000BFF970BD00B591B018223EA16846FEF707
:1012500089FF00BF01216846C17600218176417671
:10126000017600BF11206946087700BF022106A859
:1012700001720021C171817100206946487700BF69
:10128000282106A8417200BF7821417356210173BD
:101290003421C1721221817200BF00BF5921C17374
:1012A0005621817300BF01210174417416226946E1
:1012B000123000F028F900BFFF2108A80230C177E2
:1012C000EE21817700BF00BF0A21203041700D2040
:1012D00010A9887000BF2C2106A8FFF7FBFA1F4851
:1012E000FEF776FF11B000BD10B51D4A1D4918204C
:1012F00000F03CF81C4A12491C2000F037F810BDE1
:10130000FFF7ACF86420FEF763FFFEF7BFFFFEF7C0
:101310006CFFFFF721F9FFF7C6F9FFF762FAFFF755
:10132000E3FFFFF7FDFCFFF78EFEFFF7B4FD03E0E0
:10133000FFF753FEFFF74FFFFAE700000C00001025
:10134000D40D0010000102030405060708090A0B6A
:101350000C0D0E0F101112131415000010270000B1
:10136000E80D0010C00D0010480E001010B5034627
:10137000084602610024446003608460641EC46007
:1013800010BD01464868002801D1012070470020A7
:10139000FCE701460A684868904201D10120704785
:1013A0000020FCE700B502461046FFF7EAFF0028E0
:1013B0000BD15068401E50609068401C90601168CE
:1013C0009068884201D10020906000BD00B50246BF
:1013D0001046FFF7D6FF002804D1916889001069F4
:1013E000405800BD0020C043FBE710B503460C4643
:1013F0001846FFF7CEFF00280FD15868401C5860F0
:10140000D868401CD8601968D868884201D100208B
:10141000D860D96889001869445010BD10B5012101
:101420008806FEF724FF0121C806FEF720FF0121F0
:101430000806FEF71CFF01214806FEF718FF0121F0
:101440008806FEF705FF0121C806FEF701FF01210E
:101450000806FEF7FDFE01214806FEF7F9FE10BD65
:1014600010B501210803FEF702FF0021012000034F
:10147000FEF7EEFE10BD10B501214804FEF7F7FEA1
:1014800001218804FEF7F3FE0121C804FEF7EFFEF8
:10149000002101204004FEF7DBFE01218804FEF755
:1014A000D7FE0121C804FEF7D3FE10BD034610B5D8
:1014B0000B439B070FD1042A0DD308C810C9121F74
:1014C000A342F8D018BA21BA884201D9012010BD30
:1014D0000020C04310BD002A03D0D30703D0521C04
:1014E00007E0002010BD03780C78401C491C1B1B32
:1014F00007D103780C78401C491C1B1B01D1921E9C
:10150000F1D1184610BDF8B5042A2CD3830712D0A8
:101510000B78491C0370401C521E83070BD00B78BC
:10152000491C0370401C521E830704D00B78491CD1
:101530000370401C521E8B079B0F05D0C91ADF0099
:101540002023DE1B08C90AE0FEF70CFEF8BD1D468D
:1015500008C9FD401C46B4402C4310C0121F042A89
:10156000F5D2F308C91A521EF0D40B78491C037047
:10157000401C521EEAD40B78491C0370401C012AFF
:10158000E4D409780170F8BD01E004C0091F042902
:10159000FBD28B0701D50280801CC90700D00270E6
:1015A000704700290BD0C30702D00270401C491EAF
:1015B000022904D3830702D50280801C891EE3E739
:1015C0000022EEE70022DFE7002203098B422CD342
:1015D000030A8B4211D300239C464EE003460B4383
:1015E0003CD4002243088B4231D303098B421CD3E5
:1015F000030A8B4201D394463FE0C3098B4201D3D7
:10160000CB01C01A524183098B4201D38B01C01A0E
:10161000524143098B4201D34B01C01A5241030985
:101620008B4201D30B01C01A5241C3088B4201D334
:10163000CB00C01A524183088B4201D38B00C01AE1
:10164000524143088B4201D34B00C01A5241411A08
:1016500000D201465241104670475DE0CA0F00D0EB
:101660004942031000D34042534000229C460309E4
:101670008B422DD3030A8B4212D3FC22890112BA6A
:10168000030A8B420CD3890192118B4208D3890142
:1016900092118B4204D389013AD0921100E089095A
:1016A000C3098B4201D3CB01C01A524183098B423B
:1016B00001D38B01C01A524143098B4201D34B0124
:1016C000C01A524103098B4201D30B01C01A524187
:1016D000C3088B4201D3CB00C01A524183088B420E
:1016E00001D38B00C01A5241D9D243088B4201D397
:1016F0004B00C01A5241411A00D201466346524182
:101700005B10104601D34042002B00D54942704780
:1017100063465B1000D3404201B50020C046C0467E
:1017200002BD704770477047754600F023F8AE461B
:10173000050069465346C008C000854618B020B56C
:10174000FEF736FD60BC00274908B6460026C0C536
:10175000C0C5C0C5C0C5C0C5C0C5C0C5C0C5403D69
:1017600049008D4670470446C046C0462046FEF7F5
:10177000F2FC000000487047B80E00100149182024
:10178000ABBEFEE726000200704730B47446641E0C
:101790002578641CAB4204D3635D5B00E31830BC66
:1017A00018471D46F8E70000C817000000000010A9
:1017B0000C00000004010000D41700000C00001011
:1017C0000C1100002001000000366E010000000036
:0417D0000000000015
:040000050000019D59
:00000001FF
