:020000040000FA
:10000000481500109D010000AD010000A501000091
:1000100000000000000000000000000000000000E0
:10002000000000000000000000000000A701000028
:100030000000000000000000A9010000AB0100006A
:10004000AD010000AD01000000000000FB05000054
:100050001B0700005508000000000000AD01000073
:10006000AD010000AD010000AD010000AD010000D8
:10007000AD010000AD010000AD0100002F02000045
:10008000AD010000AD010000AD010000AD010000B8
:10009000AD010000AD010000AD0100000000000056
:1000A000AD010000AD010000AD010000AD01000098
:1000B000AD010000AD010000AD010000AD01000088
:1000C00000F002F800F03EF80CA030C80838241800
:1000D0002D18A246671EAB4654465D46AC4201D180
:1000E00000F030F87E460F3E0FCCB6460126334274
:1000F00000D0FB1AA246AB4633431847FC1A000057
:100100001C1B0000103A02D378C878C1FAD85207F5
:1001100001D330C830C101D504680C6070470000BD
:100120000023002400250026103A01D378C1FBD813
:10013000520700D330C100D50B6070471FB51FBDFB
:1001400010B510BD01F01DFD1146FFF7F7FF00F0DF
:1001500085FE01F035FD03B4FFF7F2FF03BC01F0AB
:1001600035FD000070B505460C46164602E00FCC82
:100170000FC5103E102EFAD2082E02D303CC03C5B1
:10018000083E042E07D301CC01C5361F03E02178B9
:100190002970641C6D1C761EF9D270BD074880471B
:1001A00007480047FEE7FEE7FEE7FEE7FEE7000040
:1001B00004480549034A054B704700005D040000F0
:1001C000C10000004813001048150010481300102B
:1001D000014605E0002000E0401C394A9042FBD374
:1001E0000A46491E002AF5D17047364800680121A9
:1001F000490208433349086032488038406849154D
:1002000088433049803948600846406849150843AA
:100210002C498039486000202B4908602B48C86071
:100220000F20012181402A4A116000BF70472648F3
:1002300000680221084000280BD0234800680843CA
:10024000214908602148C86022480088401C214993
:10025000088070471D4941431B4AD16000BF1A49BD
:100260000968022211400029F9D017490968114391
:10027000154A1160704710B516480088642809DADD
:1002800015480078002805D1012001F009F9012066
:10029000114908700F480088642809DB0E4800786F
:1002A000012805D1002001F0FBF800200A49087060
:1002B00008480088C82802DB00200649088010BDD5
:1002C000610900008080044000800040EE020000D0
:1002D00000E100E00400001006000010D2B210B5EA
:1002E00013029A1813049A1801F08BFB10BD704783
:1002F0007047704700487047E8120010FFFFFFFF8B
:1003000010B500247348406AC005000F030001F0D7
:1003100064FC10090B0D0F11131517191B1D1F215C
:100320002325272900241DE06B4C1BE06B4C19E0B2
:100330006B4C17E06B4C15E06B4C13E06B4C11E011
:100340006B4C0FE06B4C0DE06B4C0BE06B4C09E021
:100350006B4C07E06B4C05E06B4C03E06B4C01E031
:100360006B4C00BF00BF5B48406AC006800E811C1A
:10037000204601F059FB044656484030006B800788
:10038000800F002806D0012808D0022826D0032894
:1003900059D126E05F486049086054E04D4840303C
:1003A00000688007800F002806D0012808D00228A6
:1003B0000AD0032810D10BE05648574908600BE0DB
:1003C00054485549086007E000205349086003E09D
:1003D00050485149086000BF00BF34E04E480460F7
:1003E00031E03C48403000688007800F002806D08C
:1003F00001280ED0022816D0032822D117E0354854
:100400008068C006C00E401C42494843424908600B
:1004100017E030488068C006C00E401C3D49484384
:100420003D4908600DE000203B49086009E029488B
:100430008068C006C00E401C3649484336490860F3
:1004400000BF00BF00BF00BF22484030816B324870
:10045000006801F0E9FA3049086010BD10B51D4888
:10046000803000682D4908431A4980310860002017
:100470001849403108600120486000BF15484030ED
:100480004068C007C00F0028F8D04120114988609B
:100490002348806B802188432149886300BF0D4831
:1004A000C068C007C00F0028F9D0032009494031B7
:1004B00008630120486300BF06484030406BC00716
:1004C000C00F0028F8D00120024940318863FFF7AF
:1004D00017FF10BD00800440C027090090051000E0
:1004E000C05C1500F0B31A00200B2000009F240010
:1004F000E0322900C0C62D0050973100E06735007A
:100500007038390000093D00401640008023430048
:10051000C0304600001BB70000000010800004003F
:100520000082044000210170418070470120FB4996
:10053000C86070470120F94908617047F748C068F2
:1005400004210843F549C8607047F4480069042154
:100550000843F2490861704710B5F1480068000C83
:100560000004EF4908600846006808600846006813
:10057000032149020843EA4908600120E94948612A
:1005800008460068012189030843E64908600A46D5
:1005900052691201E1235B025A431146E14A403A93
:1005A000926BE14B1B685A43104601F03DFA401E26
:1005B000DA49086205200860FFF7B8FF032000F061
:1005C0002FFA47210901D94801F02AFA10BD70B568
:1005D00005460C46002D01D0002C00DC70BD2246E3
:1005E0002946D34801F0BFF9D149891F0C71002079
:1005F0004871FFF7A3FF00BFF0E700B5C748806868
:10060000C007C00F002816D0C4484069C1B2C7480F
:1006100042884088401CC54B5880181D8154001FDB
:10062000408821214901884202DB00201946488088
:100630000120BE490870B94880680421084000289C
:100640001DD0BB48801F0079002800D100BDB848EC
:10065000801F41794079401CB54A921F5071901D0E
:10066000405CAE49C861104640791146097988421C
:1006700005DBFFF76AFF0020AD49891F087100BF45
:10068000E4E7AC48C06804210843AA49C860704741
:10069000A848006904210843A64908617047012061
:1006A000A449C860704710B59D484068A2490840F9
:1006B0009B4948600846406815210902084398494B
:1006C0004860084640680B21490408439449486043
:1006D000012094494861084600680121C903084384
:1006E000904908600A4652691201E1235B025A43AD
:1006F00011468C4A403A926B8B4B1B685A4310460A
:1007000001F092F9401E8B49086205200860012023
:10071000C860042000F084F910BD00B585488068E9
:10072000C007C00F002816D082484069C1B2834874
:1007300042884088401C814B5880181D8154001FFE
:10074000408821214901884202DB00201946488067
:1007500001207A4908707748806804210840002801
:1007600019D077480079002800D100BD744841793C
:100770004079401C724A5071901D405C6D49C861BF
:100780001046407911460979884204DBFFF780FF63
:1007900000206B49087100BFE7E770B505460C46BD
:1007A000002D01D0002C00DC70BD22462946644893
:1007B000801D01F0D8F862490C7100204871FFF7E4
:1007C00060FF00BFF0E75F48C068042108435D494F
:1007D000C86070475B4800690421084359490861B3
:1007E000704710B54E48806880B24D498860084611
:1007F00080680121090508434949886008468068E6
:100800000521490608434649886001204549486159
:1008100008460068012109040843424908600A4665
:1008200052691201E1235B025A4311463D4A403AA4
:10083000926B3D4B1B685A43104601F0F5F8401E81
:1008400040490862052008600120C860052000F0CA
:10085000E7F810BD00B53B488068C007C00F00280E
:1008600016D038484069C1B2374842884088401C99
:10087000354B5880181D8154001F408821214901A3
:10088000884202DB00201946488001202E4908706A
:100890002C48806804210840002819D02B48007992
:1008A000002800D100BD294841794079401C274AE1
:1008B0005071901D405C2349C86110464079114633
:1008C0000979884204DBFFF785FF00201F49087182
:1008D00000BFE7E770B505460C46002D01D0002C9F
:1008E00000DC70BD224629461848801D01F03BF807
:1008F00016490C7100204871FFF765FF00BFF0E753
:1009000010B50A480078012807D108484188001D21
:10091000FFF75DFE0548FFF705FE10BD00400640ED
:1009200000C000408080044000000010140000104F
:100930003A04001000800640FF0000FF840400100D
:10094000A408001000C00640F4080010140D0010A8
:1009500010B537480078012807D135484188001D77
:10096000FFF71BFF3248FFF7DDFD10BD10B5314822
:10097000007801280AD10A20FFF72AFC2D48418877
:10098000001DFFF7A7FF2B48FFF7CCFD10BD08B5F2
:1009900029A00068009001216846FFF718FE012099
:1009A000FFF716FC08BD08B523A0006800900121E0
:1009B0006846FFF7F2FE0120FFF70AFC08BD08B504
:1009C0001DA00068009001216846FFF783FF012009
:1009D000FFF7FEFB08BD10B51848007801280AD1C2
:1009E0001420FFF7F5FB15484188001DFFF772FF43
:1009F0001248FFF797FD10BD10B50E48007801288A
:100A00000DD16420FFF7E4FB0A484188001DFFF781
:100A1000DEFD0A20FFF7DCFB0648FFF783FD10BD73
:100A2000C206D20E01219140054A116070470000B4
:100A300084040010F40800100100000014000010ED
:100A400000E100E0002904D1184A12688243174BE4
:100A50001A60012904D1154A12680243134B1A6027
:100A60007047002904D1124A12688243104B1A6061
:100A7000012904D10E4A126802430D4B1A607047D7
:100A800010B50C480068402108430A490860084630
:100A90000068802108430749086000F0ADFC00F0C1
:100AA000B6FC00F067FA00F021FC10BD002100A0A8
:100AB000002000A08080044010B50346981801244F
:100AC0002403A04201D3032010BD07E018465B1C9D
:100AD00007242403001900780870491C1046521E90
:100AE0000028F3D100BFEFE7F7B586B00E461746F2
:100AF0000025002002908C4801900698C019012121
:100B00000903884202D3032009B0F0BD72B60698EB
:100B10008003000E0590059881020698451A0598F5
:100B20001C30C4B20598401C81020698081A049033
:100B30000498B84201D9384600E00498039005991A
:100B40008802012292027849FFF7B6FF04E030786C
:100B500075494855761C6D1C03988542F7D321468C
:100B6000204600F0E3F802902146204600F000F90C
:100B700002902146204600F00BF9029021462046C3
:100B800000F0D4F80290A00201229202019900F034
:100B9000DDF80290A00201229202019900F020F9F2
:100BA00002900298002801D00120ADE70499039833
:100BB00088427BD104983F1A36E0601CC4B20025FD
:100BC00004E0307858494855761C6D1C012080029D
:100BD0008542F6D32146204600F0A8F8029021462F
:100BE000204600F0C5F802902146204600F0D0F8DB
:100BF00002902146204600F099F80290A0020122BE
:100C00009202019900F0A2F80290A0020122920241
:100C1000019900F0E5F802900298002801D0012027
:100C200072E7012080023F1A012080028742C4D26D
:100C3000601CC4B220461C38C0B2059005998802D9
:100C4000012292023849FFF737FF002504E030788F
:100C500035494855761C6D1CBD42F8D321462046C7
:100C600000F064F802902146204600F081F80290DE
:100C70002146204600F08CF802902146204600F0E4
:100C800055F80290A00201229202019900F05EF84C
:100C90000290A00201229202019900F0A1F80290B4
:100CA0000298002802D001202EE7FFE762B600205C
:100CB0002AE730B5C1B000250024012000F0F0FB88
:100CC00000BF03E001A90C55601C84B2FF2CF9DDC4
:100CD000FF22013201A90020FFF706FF0546FF228F
:100CE000013201A90020FFF7E7FE0546002D16D1CD
:100CF000002409E001A8005DA04203D0012000F01B
:100D0000DEFB03E0601C84B2FF2CF3DD00BFFF209C
:100D10000130844206D1002000F0C2FB02E0012035
:100D200000F0CDFB41B030BD640D001070B504463D
:100D30000D463220464908600846446085604549B2
:100D4000454A126890474348006870BD70B5044634
:100D50000D46164633203E490860084644608560CB
:100D6000C6603C493C4A126890473A48006870BDEA
:100D700070B504460D463420354908600846446085
:100D800085603449344A126890473248006870BD23
:100D900070B504460D4635202D490860084644606C
:100DA00085602C492C4A126890472A48006870BD1B
:100DB00010B536202649086026492548264A12687B
:100DC00090472448006810BD10B5372020490860BE
:100DD00020491F48204A126890471E48006810BDED
:100DE00070B504460D461646382019490860084675
:100DF00044608560C6601749174A126890471548D5
:100E0000006870BD10B539201149086011491048BB
:100E1000114A1268904710BD10B53A200C4908607D
:100E20000C490B480C4A126890470A48006810BDEC
:100E300070B504460D463B200549086008464460ED
:100E400085600449044A126890470248006870BDF2
:100E5000641100107811001008000010FFF7FEFA6E
:100E60006420FFF7B5F9FFF70BFEFFF7BEF9FFF7B8
:100E700073FBFFF718FCFFF7B4FC00F067F800F015
:100E80001FF900F0FAFB00F0E6F905E0FFF7F3F9CF
:100E900000F0BDFB00F092FCF8E7000010B503463F
:100EA000084602610024446003608460641EC460DC
:100EB00010BD01464868002801D10120704700207C
:100EC000FCE701460A684868904201D1012070475A
:100ED0000020FCE700B502461046FFF7EAFF0028B5
:100EE0000BD15068401E50609068401C90601168A3
:100EF0009068884201D10020906000BD00B5024694
:100F00001046FFF7D6FF002804D1916889001069C8
:100F1000405800BD0020C043FBE710B503460C4617
:100F20001846FFF7CEFF00280FD15868401C5860C4
:100F3000D868401CD8601968D868884201D1002060
:100F4000D860D96889001869445010BD00B5054AB9
:100F500005491820FFF7A2FF044A05491C20FFF7A6
:100F60009DFF00BDB41100108C1100101412001070
:100F7000A011001010B501218020FFF772FD0121A2
:100F80000802FFF76EFD0021FF200130FFF75AFD38
:100F900001218020FFF756FD10BD10B50446002C3E
:100FA00006D0012C0ED0022C16D0032C26D11CE02A
:100FB0000021FF200130FFF745FD00218020FFF7D1
:100FC00041FD25E00021FF200130FFF73BFD01211D
:100FD0008020FFF737FD1BE001210802FFF732FDFB
:100FE00000218020FFF72EFD12E001210802FFF70B
:100FF00029FD01218020FFF725FD09E00021FF20C8
:101000000130FFF71FFD00218020FFF71BFD00BF0F
:1010100000BF10BD10B50020FFF7BFFF7D20C0004E
:10102000FFF7D6F80320FFF7B8FF7D20C000FFF7D9
:10103000CFF810BD10B5044698480068000C0004B5
:101040009649086008460068086008460068032161
:1010500049020843914908600120914948610846C6
:1010600000680121890308438D4908600A465269D6
:101070001201624311468A4A403A926B894B1B68BF
:101080005A43104600F0D0FC401E874908620520F4
:101090000860FFF74BFA032001218140834A116069
:1010A00000BF47210901824800F0BAFC10BD10B50D
:1010B0000320FFF772FF4B20C001FFF7BBFF10BDFD
:1010C0001CB57CA000680190BB20009001226946FD
:1010D0000520FFF7F1FC002810D168460078AA2807
:1010E0000CD1052274490020FFF7E6FC002804D04B
:1010F000052271490020FFF7DFFC1CBD05216E4869
:1011000000F08EFCFF20F530FFF762F8FFF7CFFF0D
:10111000FF20F530FFF75CF8032101A8FFF757FA2D
:101120001420FFF755F86248007801282ED1604856
:101130000079C02822D104225D49491D5E4800F093
:1011400012FC5B48807A5C490871AA200090052255
:101150000020FFF7C9FC002804D0052256490020D2
:10116000FFF7C2FC012269460520FFF7BDFC0028FD
:1011700004D0012269460520FFF7B6FC05214E4840
:10118000FFF7A8FB4A48FFF7CDF906E005214A48DA
:10119000FFF7A0FB4648FFF7C5F900BFADE71CB558
:1011A00046A103C90191009008216846FFF70FFA94
:1011B0001CBD08B543A00068009003216846FFF7F6
:1011C00006FA08BD10B57D20C000FFF701F8FFF753
:1011D000E6FF10BD704710B50120FFF7DEFEE120ED
:1011E0004002FFF727FF10BD7FB58AB004461546C1
:1011F0001E462821684600F015FC04222146684658
:1012000000F0B1FB08A8017B68460171324629460F
:10121000401D00F0A8FB25216846FFF7D8F90EB065
:1012200070BD30B589B028A000680890282420221D
:1012300026A16846FEF796FF2025FFF7CCFF2B4638
:101240006A46214608A8FFF7CFFF7D20C000FEF7C1
:10125000BFFF09B030BD10B50020FFF79EFEE120B2
:101260004002FFF7E7FE10BD30B589B016A0006858
:1012700008902824202215A16846FEF773FF202538
:10128000FFF7E9FF2B466A46214608A8FFF7ACFFA7
:101290007D20C000FEF79CFF09B030BD00C00040BB
:1012A00080800440000000100040064000E100E0A3
:1012B00014000010C1C1C1000C000010C0000000EB
:1012C000013A11DCC3C3C3000000000200010203A5
:1012D0000405060708090A0B0C0D0E0F1011121356
:1012E0001415161718191A1B1C1D1E1F10B50121E5
:1012F0008806FFF7B6FB0121C806FFF7B2FB012104
:101300000806FFF7AEFB01214806FFF7AAFB012103
:101310008806FFF797FB0121C806FFF793FB012121
:101320000806FFF78FFB01214806FFF78BFB10BD76
:1013300010B500210120C006FFF784FB1420FEF742
:1013400047FF0121C806FFF77DFB10BD10B57D20CA
:10135000C000FEF73DFFFFF7EBFF7D20C000FEF76A
:1013600037FF10BD10B5002101208006FFF76AFB92
:101370001E48FEF72DFF01218806FFF763FB10BD15
:1013800010B5FFF7EFFF10BD08B519A00068009079
:1013900001216846FFF79EFA0120FEF719FF08BDFC
:1013A00010B500210120C006FFF74CFBFA20FEF724
:1013B0000FFF0121C806FFF745FB10BD10B57D20CA
:1013C000C000FEF705FFFFF7EBFF7D20C000FEF732
:1013D000FFFE10BD08B507A0006800900121684617
:1013E000FFF778FA0120FEF7F3FE08BDAC0D000010
:1013F0000A0000000B00000010B501210803FFF7F0
:1014000030FB002101200003FFF71CFB10BD10B5CD
:1014100001214804FFF725FB01218804FFF721FB88
:101420000121C804FFF71DFB002101204004FFF744
:1014300009FB01218804FFF705FB0121C804FFF720
:1014400001FB10BD10B50446002C04DD012108038A
:10145000FFF7F8FA04E0002101200003FFF7F2FA99
:1014600010BD10B50120FFF7EDFF7D20C000FEF795
:10147000AFFE0020FFF7E6FF7D20C000FEF7A8FECC
:1014800010BD10B50446002C05DD002101204004EC
:10149000FFF7D8FA03E001214804FFF7D3FA10BDA3
:1014A00010B50446002C05DD002101208004FFF763
:1014B000C9FA03E001218804FFF7C4FA10BD10B592
:1014C0000446002C05DD00210120C004FFF7BAFA14
:1014D00003E00121C804FFF7B5FA10BD10B50120E3
:1014E000FFF7CFFF0120FFF7DBFF0120FFF7E7FF4A
:1014F0006420FEF76DFE0020FFF7C3FF0020FFF71A
:10150000CFFF0020FFF7DBFF6420FEF761FE10BD78
:1015100038B50446EEA0006800900522ED4920464B
:1015200000F0F4F9002808D120462A30022269464A
:1015300000F0ECF9002800D138BD0120FCE710B51F
:101540008CB004462C2101A800F06CFA0522E14978
:1015500001A800F008FAE2B2252102A80130FEF746
:10156000BDFE00BF0A210BA8023041700D2008A962
:10157000887300BF2C2101A8FFF7ACF90CB010BD97
:1015800070B504460D46002C01D0002D01D102207B
:1015900070BD2046FFF7BCFF002806D12C22214653
:1015A000284600F0E0F90020F2E70120F0E710B54E
:1015B0008AB00446002C02D102200AB010BD2522B8
:1015C000611D684600F0CFF925216846FEF7FFFF50
:1015D0000020F2E730B58BB005460024002D01D184
:1015E0000BB030BD69462846FFF7CAFF0446002C01
:1015F00000D007E06846FFF7DAFF0446002C00D071
:1016000000E0EDE72046FFF79AFF00BFE8E770B57E
:101610000024B148007801282ED16420FEF7D8FDBF
:1016200000BF0CE0AC49091D0819FFF771FF002845
:1016300003D12146A948FFF770FC601C84B2A8487A
:101640008442EFDB0EE0A548FFF758FCA249091DD4
:1016500045182846FFF7BEFFA048FFF73BFC502087
:10166000FEF7B6FD9D48FFF724FC0028EBD047218C
:101670000901994800F0D4F970BD1CB500BF0221E2
:101680006846C170002181704170017000BF282040
:1016900069460871FF2264219248FEF71FFE052269
:1016A0006946904800F05FF91CBD70B505460024FE
:1016B00000BF0CE0A00020188A4A811805222846A5
:1016C00000F024F9002800D170BD601CC4B2142CB5
:1016D000F0DB0120F8E770B504460D46002C01D080
:1016E000002D01D1022070BD2046FFF7DEFF00284B
:1016F00006D125222146284600F035F90020F2E7E0
:101700000120F0E710B58CB00446002C02D1022075
:101710000CB010BD05226F4901A800F024F9252264
:10172000214602A8013000F01EF900BF0A210BA8D3
:10173000023041700D2008A9887300BF2C2101A838
:10174000FFF7C8F80020E3E730B58BB004460D463C
:10175000282101A800F066F90422294601A800F01A
:1017600002F9287969460872E2B2202102A8013004
:10177000FEF7B4FD252101A8FEF729FF0BB030BD0F
:1017800030B58BB005460024002D01D10BB030BD23
:1017900001A92846FFF79FFF0446002C00D007E070
:1017A00001A8FFF7AFFF0446002C00D000E0EDE7F2
:1017B00001A92046FFF7C8FF00BFE7E770B5002486
:1017C0004948007801282FD11420FEF701FD00BF01
:1017D0000CE04549091D0819FFF767FF002803D1F0
:1017E00021464248FFF799FB601C84B2FF2080002D
:1017F0008442EEDB0EE03D48FFF780FB3A49091DCD
:1018000045182846FFF7BCFF3848FFF763FB0A205E
:10181000FEF7DEFC3548FFF74CFB0028EBD04721F4
:101820000901314800F0FCF870BD00B591B01822F4
:101830002FA16846FEF796FC00BF01216846C176DD
:10184000002181764176017600BF11206946087734
:1018500000BF022106A801720021C1718171002020
:101860006946487700BF282106A8417200BF782149
:101870004173562101733421C1721221817200BF5C
:1018800000BF5921C1735621817300BF012101742A
:10189000417416226946123000F065F800BFFF213E
:1018A00008A80230C177EE21817700BF00BF0A216E
:1018B000203041700D2010A9887000BF2C2106A88F
:1018C000FFF708F81048FEF783FC11B000BD0000D8
:1018D0000D0A00000C000010F40800108C1100101C
:1018E000F50300008412001014000010A011001075
:1018F000000102030405060708090A0B0C0D0E0F70
:10190000101112131415000010270000034610B523
:101910000B439B070FD1042A0DD308C810C9121F0F
:10192000A342F8D018BA21BA884201D9012010BDCB
:101930000020C04310BD002A03D0D30703D0521C9F
:1019400007E0002010BD03780C78401C491C1B1BCD
:1019500007D103780C78401C491C1B1B01D1921E37
:10196000F1D1184610BDF8B5042A2CD3830712D044
:101970000B78491C0370401C521E83070BD00B7858
:10198000491C0370401C521E830704D00B78491C6D
:101990000370401C521E8B079B0F05D0C91ADF0035
:1019A0002023DE1B08C90AE0FEF7DCFBF8BD1D465C
:1019B00008C9FD401C46B4402C4310C0121F042A25
:1019C000F5D2F308C91A521EF0D40B78491C0370E3
:1019D000401C521EEAD40B78491C0370401C012A9B
:1019E000E4D409780170F8BD01E004C0091F04299E
:1019F000FBD28B0701D50280801CC90700D0027082
:101A0000704700290BD0C30702D00270401C491E4A
:101A1000022904D3830702D50280801C891EE3E7D4
:101A20000022EEE70022DFE7002203098B422CD3DD
:101A3000030A8B4211D300239C464EE003460B431E
:101A40003CD4002243088B4231D303098B421CD380
:101A5000030A8B4201D394463FE0C3098B4201D372
:101A6000CB01C01A524183098B4201D38B01C01AAA
:101A7000524143098B4201D34B01C01A5241030921
:101A80008B4201D30B01C01A5241C3088B4201D3D0
:101A9000CB00C01A524183088B4201D38B00C01A7D
:101AA000524143088B4201D34B00C01A5241411AA4
:101AB00000D201465241104670475DE0CA0F00D087
:101AC0004942031000D34042534000229C46030980
:101AD0008B422DD3030A8B4212D3FC22890112BA06
:101AE000030A8B420CD3890192118B4208D38901DE
:101AF00092118B4204D389013AD0921100E08909F6
:101B0000C3098B4201D3CB01C01A524183098B42D6
:101B100001D38B01C01A524143098B4201D34B01BF
:101B2000C01A524103098B4201D30B01C01A524122
:101B3000C3088B4201D3CB00C01A524183088B42A9
:101B400001D38B00C01A5241D9D243088B4201D332
:101B50004B00C01A5241411A00D20146634652411D
:101B60005B10104601D34042002B00D5494270471C
:101B700063465B1000D3404201B50020C046C0461A
:101B800002BD7546FEF7B6FBAE46050069465346F4
:101B9000C008C000854618B020B5FEF709FB60BC40
:101BA00000274908B6460026C0C5C0C5C0C5C0C587
:101BB000C0C5C0C5C0C5C0C5403D49008D467047C1
:101BC0000446C046C0462046FEF7C5FA0149182023
:101BD000ABBEFEE726000200704730B47446641EB8
:101BE0002578641CAB4204D3635D5B00E31830BC12
:101BF00018471D46F8E70000181C00000000001000
:101C000014000000040100002C1C0000140000104F
:101C1000341500002001000000366E0100000000B5
:0C1C2000F11FFF1F00000000000000008A
:040000050000019D59
:00000001FF
