:020000040000FA
:10000000B81000109D010000AD010000A501000026
:1000100000000000000000000000000000000000E0
:10002000000000000000000000000000A701000028
:100030000000000000000000A9010000AB0100006A
:10004000AD010000AD0100000000000089070000C4
:100050006D090000990A000000000000AD010000D9
:10006000AD010000AD010000AD010000AD010000D8
:10007000AD010000AD010000AD010000AD010000C8
:10008000AD010000AD010000AD010000AD010000B8
:10009000AD010000AD010000AD0100000000000056
:1000A000AD010000AD010000AD010000AD01000098
:1000B000AD010000AD010000AD010000AD01000088
:1000C00000F002F800F03EF80CA030C80838241800
:1000D0002D18A246671EAB4654465D46AC4201D180
:1000E00000F030F87E460F3E0FCCB6460126334274
:1000F00000D0FB1AA246AB4633431847B4180000A1
:10010000D4180000103A02D378C878C1FAD8520740
:1001100001D330C830C101D504680C6070470000BD
:100120000023002400250026103A01D378C1FBD813
:10013000520700D330C100D50B6070471FB51FBDFB
:1001400010B510BD01F0F8FB1146FFF7F7FF01F005
:1001500087FA01F010FC03B4FFF7F2FF03BC01F0D3
:1001600011FC000070B505460C46164602E00FCCA7
:100170000FC5103E102EFAD2082E02D303CC03C5B1
:10018000083E042E07D301CC01C5361F03E02178B9
:100190002970641C6D1C761EF9D270BD074880471B
:1001A00007480047FEE7FEE7FEE7FEE7FEE7000040
:1001B00004480549034A054B704700005D040000F0
:1001C000C1000000B80E0010B8100010B80E0010EA
:1001D00010B5034608460261002444600360846051
:1001E000641EC46010BD01464868002801D101208A
:1001F00070470020FCE701460A684868904201D138
:10020000012070470020FCE700B502461046FFF7CA
:10021000EAFF00280BD15068401E50609068401CD7
:10022000906011689068884201D10020906000BD04
:1002300000B502461046FFF7D6FF002804D19168AA
:1002400089001069405800BD0020C043FBE710B58D
:1002500003460C461846FFF7CEFF00280FD158681A
:10026000401C5860D868401CD8601968D86888421B
:1002700001D10020D860D96889001869445010BDA8
:10028000034610B50B439B070FD1042A0DD308C8B2
:1002900010C9121FA342F8D018BA21BA884201D956
:1002A000012010BD0020C04310BD002A03D0D30799
:1002B00003D0521C07E0002010BD03780C78401CCE
:1002C000491C1B1B07D103780C78401C491C1B1BC5
:1002D00001D1921EF1D1184610BDD2B210B5130251
:1002E0009A1813049A1801F067FA10BD7047704706
:1002F0007047000000487047540E0010FFFFFFFFDA
:1003000010B500247348406AC005000F030001F0D7
:1003100040FB10090B0D0F11131517191B1D1F2181
:100320002325272900241DE06B4C1BE06B4C19E0B2
:100330006B4C17E06B4C15E06B4C13E06B4C11E011
:100340006B4C0FE06B4C0DE06B4C0BE06B4C09E021
:100350006B4C07E06B4C05E06B4C03E06B4C01E031
:100360006B4C00BF00BF5B48406AC006800E811C1A
:10037000204601F034FA044656484030006B8007AE
:10038000800F002806D0012808D0022826D0032894
:1003900059D126E05F486049086054E04D4840303C
:1003A00000688007800F002806D0012808D00228A6
:1003B0000AD0032810D10BE05648574908600BE0DB
:1003C00054485549086007E000205349086003E09D
:1003D00050485149086000BF00BF34E04E480460F7
:1003E00031E03C48403000688007800F002806D08C
:1003F00001280ED0022816D0032822D117E0354854
:100400008068C006C00E401C42494843424908600B
:1004100017E030488068C006C00E401C3D49484384
:100420003D4908600DE000203B49086009E029488B
:100430008068C006C00E401C3649484336490860F3
:1004400000BF00BF00BF00BF22484030816B324870
:10045000006801F0C4F93049086010BD10B51D48AE
:10046000803000682D4908431A4980310860002017
:100470001849403108600120486000BF15484030ED
:100480004068C007C00F0028F8D04120114988609B
:100490002348806B802188432149886300BF0D4831
:1004A000C068C007C00F0028F9D0032009494031B7
:1004B00008630120486300BF06484030406BC00716
:1004C000C00F0028F8D00120024940318863FFF7AF
:1004D00017FF10BD00800440C027090090051000E0
:1004E000C05C1500F0B31A00200B2000009F240010
:1004F000E0322900C0C62D0050973100E06735007A
:100500007038390000093D00401640008023430048
:10051000C0304600001BB70000000010800004003F
:10052000008204400021017041807047014605E0CF
:10053000002000E0401CFD4A9042FBD30A46491EC1
:10054000002AF5D17047FA480068012149020843A2
:10055000F7490860F6488038406849158843F449EF
:10056000803948600846406849150843F049803999
:1005700048600020EF4908607047EF494143ED4A69
:10058000D16000BFEB490968022211400029F9D06F
:10059000E84909681143E74A11607047002904D10E
:1005A000E64A12688243E54B1A60012904D1E34A06
:1005B00012680243E14B1A607047002904D1E04AF7
:1005C00012688243DE4B1A60012904D1DC4A1268AA
:1005D0000243DB4B1A60704700B501218806FFF724
:1005E000ECFF0121C806FFF7E8FF01210806FFF72D
:1005F000E4FF01214806FFF7E0FF01218806FFF72D
:10060000CDFF0121C806FFF7C9FF01210806FFF74A
:10061000C5FF01214806FFF7C1FF00BD00B501215C
:100620008020FFF7CAFF01210802FFF7C6FF002163
:10063000FF200130FFF7B2FF01218020FFF7AEFF5E
:1006400000BD00B501214804FFF7B7FF0121880470
:10065000FFF7B3FF0121C804FFF7AFFF002101201E
:100660004004FFF79BFF01218804FFF797FF01215A
:10067000C804FFF793FF00BD00B501210803FFF791
:100680009CFF002101200003FFF788FF00BD00B59B
:10069000A748006840210843A5490860084600684B
:1006A00080210843A2490860FFF7E6FFFFF7C9FF72
:1006B000FFF7B4FFFFF790FF00BD0120A149C8601C
:1006C000704701209F49086170479E48C068042117
:1006D00008439C49C86070479A4800690421084350
:1006E00098490861704710B597480068000C0004ED
:1006F00095490860084600680860084600680321BC
:100700004902084390490860012089494861084628
:100710000068012189030843854908600A46526937
:100720001201E1235B025A431146814A403A926B1F
:10073000864B1B685A43104601F051F8401E814910
:10074000086205200860FFF7B8FF032000F0DCFF17
:10075000472109017E4801F03EF810BD70B50546FD
:100760000C46002D01D0002C00DC70BD224629462D
:10077000784800F0D3FF7749891F0C710020487139
:10078000FFF7A3FF00BFF0E700B56E488068C00721
:10079000C00F002816D06B484069C1B26C4842882F
:1007A0004088401C6A4B5880181D8154001F4088A7
:1007B00021214901884202DB00201946488001209E
:1007C000634908705F4880680421084000281DD0F4
:1007D0006048801F0079002800D100BD5D48801F5F
:1007E00041794079401C5B4A921F5071901D405CDA
:1007F0005449C8611046407911460979884205DBA1
:10080000FFF76AFF00205349891F087100BFE4E722
:100810005148C068042108434F49C860704770B50B
:1008200005460C46002D01D0002C00DC70BD224690
:1008300029464A4800F072FF4849891F0C71002080
:100840004871FFF7E5FF00BFF0E710B540480078BA
:1008500001280AD11420FFF769FE3D484188001D98
:10086000FFF7DDFF3A48FFF75DFE10BD10B53C48CD
:10087000007801280DD16420FFF758FE38484188E0
:10088000001DFFF76BFF0A20FFF750FE3448FFF70B
:1008900049FE10BD3348C068042108433149C8608F
:1008A000704730480069042108432E4908617047A9
:1008B00001202C49C860704710B5234840682A4978
:1008C000084021494860084640681521090208434C
:1008D0001D494860084640680B21490408431A49ED
:1008E0004860012012494861084600680121C90397
:1008F00008430F4908600A4652691201E1235B026E
:100900005A4311460A4A403A926B104B1B685A43AD
:10091000104600F064FF401E12490862052008607E
:100920000120C860042000F0EFFE10BD6109000046
:100930008080044000800040EE020000002100A002
:10094000002000A00040064000C000400000001051
:100950000C0000103204001000C00640120D001000
:10096000EC08001000800640FF0000FF00B5F948C9
:100970008068C007C00F002816D0F6484069C1B291
:10098000F54842884088401CF34B5880181D81541C
:10099000001F408821214901884202DB00201946BE
:1009A00048800120EC490870EA488068042108402A
:1009B000002819D0E9480079002800D100BDE74897
:1009C00041794079401CE54A5071901D405CE149F5
:1009D000C8611046407911460979884204DBFFF767
:1009E00060FF0020DD49087100BFE7E770B50546EC
:1009F0000C46002D01D0002C00DC70BD224629469B
:100A0000D648801D00F08AFED4490C710020487140
:100A1000FFF740FF00BFF0E7D14800690421084319
:100A2000CF490861704710B5CE48806880B2CD4983
:100A3000886008468068012109050843C949886023
:100A400008468068052149060843C6498860012098
:100A5000C549486108460068012109040843C249A4
:100A600008600A4652691201E1235B025A431146AB
:100A7000BD4A403A926BBD4B1B685A43104600F08A
:100A8000AEFE401EB6490862052008600120C8601D
:100A9000052000F039FE10BD00B5B1488068C007E0
:100AA000C00F002816D0AE484069C1B2B048428895
:100AB0004088401CAE4B5880181D8154001F408850
:100AC00021214901884202DB00201946488001208B
:100AD000A7490870A248806804210840002819D05E
:100AE000A4480079002800D100BDA248417940798E
:100AF000401CA04A5071901D405C9949C861104645
:100B0000407911460979884204DBFFF785FF002010
:100B10009849087100BFE7E710B50446002C04DDD2
:100B200001210803FFF73AFD04E000210120000342
:100B3000FFF734FD10BD00B50120FFF7EDFF7D206C
:100B4000C000FFF7F3FC0020FFF7E6FF7D20C000A8
:100B5000FFF7ECFC00BD10B50446002C05DD0021BC
:100B600001204004FFF71AFD03E001214804FFF7CC
:100B700015FD10BD10B50446002C05DD0021012037
:100B80008004FFF70BFD03E001218804FFF706FD59
:100B900010BD10B50446002C05DD00210120C00465
:100BA000FFF7FCFC03E00121C804FFF7F7FC10BDD0
:100BB00000B50120FFF7CFFF0120FFF7DBFF012089
:100BC000FFF7E7FF6420FFF7B1FC0020FFF7C3FF4A
:100BD0000020FFF7CFFF0020FFF7DBFF6420FFF7C7
:100BE000A5FC00BD10B50446002C06D0012C0ED08B
:100BF000022C16D0032C26D11CE00021FF2001304E
:100C0000FFF7CCFC00218020FFF7C8FC25E0002185
:100C1000FF200130FFF7C2FC01218020FFF7BEFC5E
:100C20001BE001210802FFF7B9FC00218020FFF73B
:100C3000B5FC12E001210802FFF7B0FC0121802081
:100C4000FFF7ACFC09E00021FF200130FFF7A6FC14
:100C500000218020FFF7A2FC00BF00BF10BD00B53F
:100C60000020FFF7BFFF7D20C000FFF75FFC0320DF
:100C7000FFF7B8FF7D20C000FFF758FC00BD10B59E
:100C80003D480078012807D13B484188001DFFF707
:100C900065FD3948FFF746FC10BD10B52E480078B9
:100CA000012807D12C484188001DFFF79FFE2A48E4
:100CB000FFF738FC10BD10B52D48007801280AD187
:100CC0000A20FFF733FC2A484188001DFFF7A7FDE3
:100CD0002748FFF727FC10BD08B528A00068009042
:100CE00001216846FFF73AFD0120FFF71FFC08BD10
:100CF00008B522A00068009001216846FFF776FE43
:100D00000120FFF713FC08BD08B51CA00068009087
:100D100001216846FFF783FD0120FFF707FC08BDAE
:100D200000B500210120C006FFF738FC1420FFF7B2
:100D3000FDFB0121C806FFF731FC00BD00B57D2099
:100D4000C000FFF7F3FBFFF7EBFF7D20C000FFF7CC
:100D5000EDFB00BD008006407C0400109C080010E4
:100D600000C0064000C00040808004400000001029
:100D7000EC0800100C0D00100C0000100100000029
:100D800000B5002101208006FFF708FCFE48FFF7B0
:100D9000CDFB01218806FFF701FC00BD00B5FFF780
:100DA000EFFF00BD08B5F9A000680090012168467A
:100DB000FFF735FD0120FFF7B9FB08BD00B50021A5
:100DC0000120C006FFF7EAFBFA20FFF7AFFB012185
:100DD000C806FFF7E3FB00BD00B57D20C000FFF7AC
:100DE000A5FBFFF7EBFF7D20C000FFF79FFB00BDD9
:100DF00008B5E7A00068009001216846FFF70FFDE5
:100E00000120FFF793FB08BD3EB5E2A207CA6B467F
:100E100007C300240020E249087000BF47210901F0
:100E2000E04800F0D8FC0A216846FFF7DFFDDE4805
:100E3000FFF77CFB002416E0DA48001D005D3A282D
:100E40000FD1D848001DA11C405C312809D1D548DC
:100E5000001D211D405C312803D10120D0490870BC
:100E600005E0601CC4B2CF484088A042E4DC00BF6B
:100E7000CB4800780028D1D03EBD10B502460B46C5
:100E8000002100BF07E0505C5C5CA04201D0012063
:100E900010BD481CC1B20329F5D30020F8E700B506
:100EA00087B0C2A103C906910590C2A30FCB0493DA
:100EB00001AB07C300BF47210901BA4800F08BFC12
:100EC000062105A8FFF792FD7D20C000FFF72EFB4D
:100ED000B449091D01A8FFF7D0FF002803D1022063
:100EE000AF49087003E0AE4800780128E3D000BFA6
:100EF00007B000BD00B587B0B2A30FCB069303AB1C
:100F000007C3B4A103C90291019000BF47210901A1
:100F1000A44800F060FC0C2103A8FFF767FD7D20CA
:100F2000C000FFF703FB9F49091D01A8FFF7A5FFBC
:100F3000002803D103209A49087003E098480078FC
:100F40000228E3D000BF07B000BD00B587B0A3A35F
:100F50000FCB069303AB07C39EA103C90291019077
:100F600000BF472109018F4800F035FC0E2103A87E
:100F7000FFF73CFD9D48FFF7D9FA8A49091D01A8F2
:100F8000FFF77BFF002803D104208549087003E0A8
:100F9000834800780328E4D000BF07B000BD00B547
:100FA00091B0282292A107A8FFF7DCF818229AA195
:100FB00001A8FFF7D7F800BF47210901794800F0E1
:100FC0000AFC262107A8FFF711FD8848FFF7AEFAB3
:100FD0007449091D01A8FFF750FF002803D105201F
:100FE0006F49087003E06E4800780428E4D000BF21
:100FF00011B000BD00B587B014228DA102A8FFF783
:10100000B1F874A103C90191009000BF4721090103
:10101000644800F0E0FB112102A8FFF7E7FC7D2007
:10102000C000FFF783FA5F49091D6846FFF725FFF7
:10103000002803D106205A49087003E05848007878
:101040000528E3D000BF07B000BD00B587B07DA381
:101050000FCB069303AB07C35EA103C902910190B6
:1010600000BF472109014F4800F0B5FB0F2103A83D
:10107000FFF7BCFC7D20C000FFF758FA4949091D65
:1010800001A8FFF7FAFE002803D1072044490870A1
:1010900003E0434800780628E3D000BF07B000BD56
:1010A0003F480078072802D108203D490870704762
:1010B0000FB568A30FCB03936B4607C30FBD10B5E5
:1010C000374800210170FFF79FFEFFF7E8FEFFF7AA
:1010D00011FFFFF73AFFFFF762FFFFF78BFFFFF704
:1010E000B4FFFFF7DDFF10BD10B504202C490870D8
:1010F000FFF755FFFFF77EFFFFF7A7FFFFF7D0FFD2
:1011000010BD10B52748007801280FD12448007879
:1011100008280BD10A20FFF709FA22484188001D50
:10112000FFF764FC00201F490870488010BD10B50F
:1011300004464C480068000C00044A490860084610
:1011400000680860084600680321490208434549D1
:10115000086001204449486108460068012189036C
:101160000843414908600A46526912016243114628
:101170003D4A403A926B3D4B1B685A43104600F083
:101180002EFB401E3A4975E0AC0D00000A0000003D
:101190000B00000041542B435245473F0D0A00000D
:1011A000040000107C0400108813000041544530F6
:1011B0000D0A0000415445300D0A0D0A4F4B0D0A2F
:1011C0000000000041542B43474154543D310D0A67
:1011D000000000000D0A4F4B0D0A000041542B4344
:1011E000474143543D312C310D0A0000B80B00003B
:1011F00041542B43495053544152543D5443502C75
:101200003132302E35352E3131372E3130382C31C8
:10121000303030300D0A00000D0A434F4E4E45432A
:1012200054204F4B0D0A0D0A4F4B0D0A00000000D1
:1012300041542B434950544346473D322C31300DE5
:101240000A00000041542B434950544D4F44453D42
:10125000310D0A0041542B434950434C4F53450D27
:101260000A00000000C00040808004400000001020
:1012700000400640086205200860FFF71EFA0320C0
:1012800000F042FA47210901FE4800F0A4FA10BD1F
:1012900008B5FDA00068009003216846FFF75EFADC
:1012A00008BD10B50320FFF79DFC4B20C001FFF7E0
:1012B0003EFF10BD08B5F4A0006800900521F3487A
:1012C00000F089FAFF20F530FFF730F9FFF7E9FF6A
:1012D000FF20F530FFF72AF903216846FFF73EFAB1
:1012E0001420FFF723F9E7480078012811D1E548D9
:1012F0000079C02809D10422E249491DE34800F0E1
:101300000DFAE048807AE1490871DE48FFF70AF9F2
:1013100006E00521DD48FFF782FADA48FFF702F917
:1013200008BD1CB5DAA103C90191009008216846E7
:10133000FFF714FA1CBD08B5D7A000680090032180
:101340006846FFF70BFA08BD10B57D20C000FFF717
:10135000EDF8FFF79DFF10BD10B57D20C000FFF731
:10136000E5F8FFF7DEFF10BD704710B50120FFF76D
:1013700039FCE1204002FFF7DAFE10BD7FB58AB0EC
:10138000044615461E462821684600F026FA042227
:101390002146684600F0C2F908A8017B6846017141
:1013A00032462946401D00F0B9F925216846FFF76D
:1013B000D5F90EB070BD30B589B0B8A000680890FE
:1013C00028242022B6A16846FEF7CCFE2025FFF790
:1013D000CCFF2B466A46214608A8FFF7CFFF7D20A9
:1013E000C000FFF7A3F809B030BD10B50020FFF72B
:1013F000F9FBE1204002FFF79AFE10BD30B589B03D
:10140000A6A00068089028242022A5A16846FEF71F
:10141000A9FE2025FFF7E9FF2B466A46214608A8CA
:10142000FFF7ACFF7D20C000FFF780F809B030BDAA
:1014300038B50446A2A000680090052293492046D2
:10144000FEF71EFF002808D120462A3002226946F6
:10145000FEF716FF002800D138BD0120FCE7014649
:101460000020704770477047704710B58CB0044635
:101470002C2101A800F0B1F90522844901A800F04F
:101480004DF9E2B2252102A80130FEF726FF00BF88
:101490000A210BA8023041700D2008A9887300BFF3
:1014A0002C2101A8FFF7BBF90CB010BD70B50446A4
:1014B0000D46002C01D0002D01D1022070BD204628
:1014C000FFF7B6FF002806D12C222146284600F05F
:1014D00025F90020F2E70120F0E710B58AB00446B4
:1014E000002C02D102200AB010BD2522611D6846E1
:1014F00000F014F925216846FFF730F90020F2E7E3
:1015000030B58BB005460024002D01D10BB030BDA5
:1015100069462846FFF7CAFF0446002C00D007E0C2
:101520006846FFF7DAFF0446002C00D000E0EDE744
:101530002046FFF79AFF00BFE8E770B50024614836
:10154000007801282DD16420FEF7F0FF00BF0BE0EA
:101550005C49091D0819FFF76BFF002803D12146DC
:101560005948FEF774FE641C58488442F0DB0EE0D4
:101570005548FEF75DFE5349091D45182846FFF7FB
:10158000BFFF5148FEF740FE5020FEF7CFFF4E4808
:10159000FEF729FE0028EBD047210901494800F059
:1015A0001AF970BD00B591B0182249A16846FEF73E
:1015B000D9FD00BF01216846C176002181764176C0
:1015C000017600BF11206946087700BF022106A8F6
:1015D00001720021C171817100206946487700BF06
:1015E000282106A8417200BF78214173562101735A
:1015F0003421C1721221817200BF00BF5921C17311
:101600005621817300BF012101744174162269467D
:10161000123000F083F800BFFF2108A80230C17724
:10162000EE21817700BF00BF0A21203041700D20DC
:1016300010A9887000BF2C2106A8FFF7F0F82A48EF
:10164000FEF774FF11B000BD10B5284A1E491820DE
:10165000FEF7BEFD264A27491C20FEF7B9FD10BD46
:10166000FEF7FCFE6420FEF761FFFFF710F8FEF7BF
:101670006AFFFFF738F8FFF71FF9FFF7D4F9FFF714
:10168000E3FF39E00C000010C1C1C10005000010EB
:10169000C0000000013A11DCC3C3C3000000000217
:1016A000000102030405060708090A0B0C0D0E0FC2
:1016B000101112131415161718191A1B1C1D1E1FB2
:1016C0000D0A0000EC0800105C0D0010F50300008E
:1016D000000102030405060708090A0B0C0D0E0F92
:1016E000101112131415000010270000840D0010B3
:1016F000E40D0010700D0010FFF7DCFDFFF775FE24
:1017000001E0FFF71AFFFCE7C206D20E012191406B
:10171000014A11607047000000E100E0F8B5042ABA
:101720002CD3830712D00B78491C0370401C521E27
:1017300083070BD00B78491C0370401C521E830793
:1017400004D00B78491C0370401C521E8B079B0F62
:1017500005D0C91ADF002023DE1B08C90AE0FEF706
:1017600001FDF8BD1D4608C9FD401C46B4402C4390
:1017700010C0121F042AF5D2F308C91A521EF0D461
:101780000B78491C0370401C521EEAD40B78491C8C
:101790000370401C012AE4D409780170F8BD01E00F
:1017A00004C0091F0429FBD28B0701D50280801CCD
:1017B000C90700D00270704700290BD0C30702D0C0
:1017C0000270401C491E022904D3830702D50280FF
:1017D000801C891EE3E70022EEE70022DFE70022FB
:1017E00003098B422CD3030A8B4211D300239C465E
:1017F0004EE003460B433CD4002243088B4231D3D6
:1018000003098B421CD3030A8B4201D394463FE069
:10181000C3098B4201D3CB01C01A524183098B42C9
:1018200001D38B01C01A524143098B4201D34B01B2
:10183000C01A524103098B4201D30B01C01A524115
:10184000C3088B4201D3CB00C01A524183088B429C
:1018500001D38B00C01A524143088B4201D34B0085
:10186000C01A5241411A00D20146524110467047F7
:101870005DE0CA0F00D04942031000D340425340FC
:1018800000229C4603098B422DD3030A8B4212D3BC
:10189000FC22890112BA030A8B420CD389019211EE
:1018A0008B4208D3890192118B4204D389013AD02B
:1018B000921100E08909C3098B4201D3CB01C01A00
:1018C000524183098B4201D38B01C01A5241430913
:1018D0008B4201D34B01C01A524103098B4201D301
:1018E0000B01C01A5241C3088B4201D3CB00C01A6E
:1018F000524183088B4201D38B00C01A5241D9D286
:1019000043088B4201D34B00C01A5241411A00D206
:101910000146634652415B10104601D34042002B02
:1019200000D54942704763465B1000D3404201B581
:101930000020C046C04602BD7546FEF7DBFCAE4641
:10194000050069465346C008C000854618B020B55A
:10195000FEF72EFC60BC00274908B6460026C0C52D
:10196000C0C5C0C5C0C5C0C5C0C5C0C5C0C5403D57
:1019700049008D4670470446C046C0462046FEF7E3
:10198000EAFB000001491820ABBEFEE7260002007A
:10199000704730B47446641E2578641CAB4204D38F
:1019A000635D5B00E31830BC18471D46F8E7000094
:1019B000D0190000000000100C000000040100001D
:1019C000DC1900000C000010AC1000002001000029
:0C19D00000366E01000000000000000066
:040000050000019D59
:00000001FF
