:020000040000FA
:10000000181100109D010000AD010000A5010000C5
:1000100000000000000000000000000000000000E0
:10002000000000000000000000000000A701000028
:100030000000000000000000A9010000AB0100006A
:10004000AD010000AD01000000000000FB05000054
:100050001B0700005508000000000000AD01000073
:10006000AD010000AD010000AD010000AD010000D8
:10007000AD010000AD010000AD010000AD010000C8
:10008000AD010000AD010000AD010000AD010000B8
:10009000AD010000AD010000AD0100000000000056
:1000A000AD010000AD010000AD010000AD01000098
:1000B000AD010000AD010000AD010000AD01000088
:1000C00000F002F800F03EF80CA030C80838241800
:1000D0002D18A246671EAB4654465D46AC4201D180
:1000E00000F030F87E460F3E0FCCB6460126334274
:1000F00000D0FB1AA246AB463343184758160000FF
:1001000078160000103A02D378C878C1FAD852079E
:1001100001D330C830C101D504680C6070470000BD
:100120000023002400250026103A01D378C1FBD813
:10013000520700D330C100D50B6070471FB51FBDFB
:1001400010B510BD01F0D7FA1146FFF7F7FF00F028
:1001500079FC00F0C3F803B4FFF7F2FF03BC00F032
:10016000C7F8000070B505460C46164602E00FCCF5
:100170000FC5103E102EFAD2082E02D303CC03C5B1
:10018000083E042E07D301CC01C5361F03E02178B9
:100190002970641C6D1C761EF9D270BD074880471B
:1001A00007480047FEE7FEE7FEE7FEE7FEE7000040
:1001B00004480549034A054B704700005D040000F0
:1001C000C1000000180F001018110010180F0010C7
:1001D000014605E0002000E0401C194A9042FBD394
:1001E0000A46491E002AF5D17047164800680121C9
:1001F000490208431349086012488038406849158D
:1002000088431049803948600846406849150843CA
:100210000C498039486000200B49086070470B4941
:100220004143094AD16000BF0749096802221140D1
:100230000029F9D0044909681143034A1160704745
:10024000610900008080044000800040EE02000050
:10025000002904D1184A12688243174B1A600129F9
:1002600004D1154A12680243134B1A6070470029E3
:1002700004D1124A12688243104B1A60012904D13A
:100280000E4A126802430D4B1A60704710B50C48B5
:100290000068402108430A49086008460068802138
:1002A00008430749086000F061FE00F06AFE00F0B4
:1002B00053FC00F0D5FD10BD002100A0002000A0DF
:1002C00080800440D2B210B513029A1813049A1811
:1002D00001F051F910BD7047704770470446C046A1
:1002E000C0462046FFF737FF00487047B80E0010A1
:1002F00001491820ABBEFEE726000200FFFFFFFF0A
:1003000010B500247348406AC005000F030001F0D7
:1003100012FA10090B0D0F11131517191B1D1F21B0
:100320002325272900241DE06B4C1BE06B4C19E0B2
:100330006B4C17E06B4C15E06B4C13E06B4C11E011
:100340006B4C0FE06B4C0DE06B4C0BE06B4C09E021
:100350006B4C07E06B4C05E06B4C03E06B4C01E031
:100360006B4C00BF00BF5B48406AC006800E811C1A
:10037000204601F013F9044656484030006B8007D0
:10038000800F002806D0012808D0022826D0032894
:1003900059D126E05F486049086054E04D4840303C
:1003A00000688007800F002806D0012808D00228A6
:1003B0000AD0032810D10BE05648574908600BE0DB
:1003C00054485549086007E000205349086003E09D
:1003D00050485149086000BF00BF34E04E480460F7
:1003E00031E03C48403000688007800F002806D08C
:1003F00001280ED0022816D0032822D117E0354854
:100400008068C006C00E401C42494843424908600B
:1004100017E030488068C006C00E401C3D49484384
:100420003D4908600DE000203B49086009E029488B
:100430008068C006C00E401C3649484336490860F3
:1004400000BF00BF00BF00BF22484030816B324870
:10045000006801F0A3F83049086010BD10B51D48D0
:10046000803000682D4908431A4980310860002017
:100470001849403108600120486000BF15484030ED
:100480004068C007C00F0028F8D04120114988609B
:100490002348806B802188432149886300BF0D4831
:1004A000C068C007C00F0028F9D0032009494031B7
:1004B00008630120486300BF06484030406BC00716
:1004C000C00F0028F8D00120024940318863FFF7AF
:1004D00017FF10BD00800440C027090090051000E0
:1004E000C05C1500F0B31A00200B2000009F240010
:1004F000E0322900C0C62D0050973100E06735007A
:100500007038390000093D00401640008023430048
:10051000C0304600001BB70000000010800004003F
:100520000082044000210170418070470120FB4996
:10053000C86070470120F94908617047F748C068F2
:1005400004210843F549C8607047F4480069042154
:100550000843F2490861704710B5F1480068000C83
:100560000004EF4908600846006808600846006813
:10057000032149020843EA4908600120E94948612A
:1005800008460068012189030843E64908600A46D5
:1005900052691201E1235B025A431146E14A403A93
:1005A000926BE14B1B685A43104600F0F7FF401E68
:1005B000DA49086205200860FFF7B8FF032000F061
:1005C0002FFA47210901D94800F0E4FF10BD70B5AA
:1005D00005460C46002D01D0002C00DC70BD2246E3
:1005E0002946D34800F079FFD149891F0C710020BA
:1005F0004871FFF7A3FF00BFF0E700B5C748806868
:10060000C007C00F002816D0C4484069C1B2C7480F
:1006100042884088401CC54B5880181D8154001FDB
:10062000408821214901884202DB00201946488088
:100630000120BE490870B94880680421084000289C
:100640001DD0BB48801F0079002800D100BDB848EC
:10065000801F41794079401CB54A921F5071901D0E
:10066000405CAE49C861104640791146097988421C
:1006700005DBFFF76AFF0020AD49891F087100BF45
:10068000E4E7AC48C06804210843AA49C860704741
:10069000A848006904210843A64908617047012061
:1006A000A449C860704710B59D484068A2490840F9
:1006B0009B4948600846406815210902084398494B
:1006C0004860084640680B21490408439449486043
:1006D000012094494861084600680121C903084384
:1006E000904908600A4652691201E1235B025A43AD
:1006F00011468C4A403A926B8B4B1B685A4310460A
:1007000000F04CFF401E8B49086205200860012064
:10071000C860042000F084F910BD00B585488068E9
:10072000C007C00F002816D082484069C1B2834874
:1007300042884088401C814B5880181D8154001FFE
:10074000408821214901884202DB00201946488067
:1007500001207A4908707748806804210840002801
:1007600019D077480079002800D100BD744841793C
:100770004079401C724A5071901D405C6D49C861BF
:100780001046407911460979884204DBFFF780FF63
:1007900000206B49087100BFE7E770B505460C46BD
:1007A000002D01D0002C00DC70BD22462946644893
:1007B000801D00F092FE62490C7100204871FFF725
:1007C00060FF00BFF0E75F48C068042108435D494F
:1007D000C86070475B4800690421084359490861B3
:1007E000704710B54E48806880B24D498860084611
:1007F00080680121090508434949886008468068E6
:100800000521490608434649886001204549486159
:1008100008460068012109040843424908600A4665
:1008200052691201E1235B025A4311463D4A403AA4
:10083000926B3D4B1B685A43104600F0AFFE401EC2
:1008400040490862052008600120C860052000F0CA
:10085000E7F810BD00B53B488068C007C00F00280E
:1008600016D038484069C1B2374842884088401C99
:10087000354B5880181D8154001F408821214901A3
:10088000884202DB00201946488001202E4908706A
:100890002C48806804210840002819D02B48007992
:1008A000002800D100BD294841794079401C274AE1
:1008B0005071901D405C2349C86110464079114633
:1008C0000979884204DBFFF785FF00201F49087182
:1008D00000BFE7E770B505460C46002D01D0002C9F
:1008E00000DC70BD224629461848801D00F0F5FD49
:1008F00016490C7100204871FFF765FF00BFF0E753
:1009000010B50A480078012807D108484188001D21
:10091000FFF75DFE0548FFF705FE10BD00400640ED
:1009200000C0004080800440000000100C00001057
:100930003204001000800640FF0000FF7C0400101D
:100940009C08001000C00640EC0800100C0D0010C0
:1009500010B537480078012807D135484188001D77
:10096000FFF71BFF3248FFF7DDFD10BD10B5314822
:10097000007801280AD10A20FFF72AFC2D48418877
:10098000001DFFF7A7FF2B48FFF7CCFD10BD08B5F2
:1009900029A00068009001216846FFF718FE012099
:1009A000FFF716FC08BD08B523A0006800900121E0
:1009B0006846FFF7F2FE0120FFF70AFC08BD08B504
:1009C0001DA00068009001216846FFF783FF012009
:1009D000FFF7FEFB08BD10B51848007801280AD1C2
:1009E0001420FFF7F5FB15484188001DFFF772FF43
:1009F0001248FFF797FD10BD10B50E48007801288A
:100A00000DD16420FFF7E4FB0A484188001DFFF781
:100A1000DEFD0A20FFF7DCFB0648FFF783FD10BD73
:100A2000C206D20E01219140054A116070470000B4
:100A30007C040010EC080010010000000C00001005
:100A400000E100E0FFF70AFD6420FFF7C1FBFFF7BC
:100A50001DFCFFF7CAFBFFF77FFDFFF724FEFFF742
:100A6000C0FE00F065F800F01DF900F0C0FB00F0DA
:100A7000ACF903E000F085FB00F05AFCFAE7000057
:100A800010B5034608460261002444600360846098
:100A9000641EC46010BD01464868002801D10120D1
:100AA00070470020FCE701460A684868904201D17F
:100AB000012070470020FCE700B502461046FFF712
:100AC000EAFF00280BD15068401E50609068401C1F
:100AD000906011689068884201D10020906000BD4C
:100AE00000B502461046FFF7D6FF002804D19168F2
:100AF00089001069405800BD0020C043FBE710B5D5
:100B000003460C461846FFF7CEFF00280FD1586861
:100B1000401C5860D868401CD8601968D868884262
:100B200001D10020D860D96889001869445010BDEF
:100B300000B5054A05491820FFF7A2FF044A0549F8
:100B40001C20FFF79DFF00BD840D00105C0D001000
:100B5000E40D0010700D001010B501218020FFF78A
:100B600086FB01210802FFF782FB0021FF200130F4
:100B7000FFF76EFB01218020FFF76AFB10BD10B567
:100B80000446002C06D0012C0ED0022C16D0032CCB
:100B900026D11CE00021FF200130FFF759FB002186
:100BA0008020FFF755FB25E00021FF200130FFF7F3
:100BB0004FFB01218020FFF74BFB1BE001210802C6
:100BC000FFF746FB00218020FFF742FB12E00121E6
:100BD0000802FFF73DFB01218020FFF739FB09E008
:100BE0000021FF200130FFF733FB00218020FFF7B9
:100BF0002FFB00BF00BF10BD10B50020FFF7BFFFE7
:100C00007D20C000FFF7E4FA0320FFF7B8FF7D2046
:100C1000C000FFF7DDFA10BD10B504467C4800683F
:100C2000000C00047A49086008460068086008461D
:100C3000006803214902084375490860012075498D
:100C4000486108460068012189030843714908602A
:100C50000A4652691201624311466E4A403A926B4B
:100C60006D4B1B685A43104600F098FC401E6B49C0
:100C7000086205200860FFF759FC0320012181402C
:100C8000674A116000BF47210901664800F082FCF5
:100C900010BD10B50320FFF772FF4B20C001FFF716
:100CA000BBFF10BD08B560A00068009005215F483B
:100CB00000F070FCFF20F530FFF78AFAFFF7E9FF3C
:100CC000FF20F530FFF784FA03216846FFF77FFC29
:100CD0001420FFF77DFA53480078012811D15148BC
:100CE0000079C02809D104224E49491D4F4800F01F
:100CF000F4FB4C48807A4D4908714A48FFF712FCD2
:100D000006E005214948FFF7E5FD4648FFF70AFCE4
:100D100008BD1CB546A103C9019100900821684691
:100D2000FFF755FC1CBD08B543A0006800900321E7
:100D30006846FFF74CFC08BD10B57D20C000FFF7EA
:100D400047FAFFF7E6FF10BD704710B50120FFF727
:100D500016FFE1204002FFF75FFF10BD7FB58AB0AC
:100D6000044615461E462821684600F015FC04225C
:100D70002146684600F0B1FB08A8017B6846017176
:100D800032462946401D00F0A8FB25216846FFF7A2
:100D90001EFC0EB070BD30B589B028A00068089068
:100DA0002824202226A16846FFF7DCF92025FFF73A
:100DB000CCFF2B466A46214608A8FFF7CFFF7D20CF
:100DC000C000FFF705FA09B030BD10B50020FFF7ED
:100DD000D6FEE1204002FFF71FFF10BD30B589B0FD
:100DE00016A0006808902824202215A16846FFF765
:100DF000B9F92025FFF7E9FF2B466A46214608A8E6
:100E0000FFF7ACFF7D20C000FFF7E2F909B030BD6D
:100E100000C00040808004400000001000400640F8
:100E200000E100E00C000010C1C1C100040000108E
:100E3000C0000000013A11DCC3C3C300000000027F
:100E4000000102030405060708090A0B0C0D0E0F2A
:100E5000101112131415161718191A1B1C1D1E1F1A
:100E600010B501218806FFF702FA0121C806FFF735
:100E7000FEF901210806FFF7FAF901214806FFF7FC
:100E8000F6F901218806FFF7E3F90121C806FFF70B
:100E9000DFF901210806FFF7DBF901214806FFF71A
:100EA000D7F910BD10B500210120C006FFF7D0F919
:100EB0001420FFF78DF90121C806FFF7C9F910BD0D
:100EC00010B57D20C000FFF783F9FFF7EBFF7D2011
:100ED000C000FFF77DF910BD10B50021012080068C
:100EE000FFF7B6F91E48FFF773F901218806FFF7EF
:100EF000AFF910BD10B5FFF7EFFF10BD08B519A091
:100F00000068009001216846FFF7E4FC0120FFF72C
:100F10005FF908BD10B500210120C006FFF798F960
:100F2000FA20FFF755F90121C806FFF791F910BD26
:100F300010B57D20C000FFF74BF9FFF7EBFF7D20D8
:100F4000C000FFF745F910BD08B507A00068009084
:100F500001216846FFF7BEFC0120FFF739F908BD03
:100F6000AC0D00000A0000000B00000010B50121CC
:100F70000803FFF77CF9002101200003FFF768F95F
:100F800010BD10B501214804FFF771F90121880453
:100F9000FFF76DF90121C804FFF769F9002101206D
:100FA0004004FFF755F901218804FFF751F90121A9
:100FB000C804FFF74DF910BD10B50446002C04DD40
:100FC00001210803FFF744F904E000210120000398
:100FD000FFF73EF910BD10B50120FFF7EDFF7D20B2
:100FE000C000FFF7F5F80020FFF7E6FF7D20C00006
:100FF000FFF7EEF810BD10B50446002C05DD00210A
:1010000001204004FFF724F903E001214804FFF721
:101010001FF910BD10B50446002C05DD002101208C
:101020008004FFF715F903E001218804FFF710F9A8
:1010300010BD10B50446002C05DD00210120C004C0
:10104000FFF706F903E00121C804FFF701F910BD1D
:1010500010B50120FFF7CFFF0120FFF7DBFF0120D4
:10106000FFF7E7FF6420FFF7B3F80020FFF7C3FFA7
:101070000020FFF7CFFF0020FFF7DBFF6420FFF722
:10108000A7F810BD38B50446EEA000680090052210
:10109000ED49204600F0F4F9002808D120462A3016
:1010A0000222694600F0ECF9002800D138BD012089
:1010B000FCE710B58CB004462C2101A800F06CFAB6
:1010C0000522E14901A800F008FAE2B2252102A8B0
:1010D0000130FFF7F7F800BF0A210BA8023041707A
:1010E0000D2008A9887300BF2C2101A8FFF7F2FB8F
:1010F0000CB010BD70B504460D46002C01D0002D7B
:1011000001D1022070BD2046FFF7BCFF002806D1A8
:101110002C222146284600F0E0F90020F2E70120C9
:10112000F0E710B58AB00446002C02D102200AB0C4
:1011300010BD2522611D684600F0CFF925216846C3
:10114000FFF745FA0020F2E730B58BB005460024E2
:10115000002D01D10BB030BD69462846FFF7CAFF0C
:101160000446002C00D007E06846FFF7DAFF04468B
:10117000002C00D000E0EDE72046FFF79AFF00BF0B
:10118000E8E770B50024B148007801282ED164202A
:10119000FFF71EF800BF0CE0AC49091D0819FFF766
:1011A00071FF002803D12146A948FFF7A8FC601C65
:1011B00084B2A8488442EFDB0EE0A548FFF790FC1C
:1011C000A249091D45182846FFF7BEFFA048FFF7B2
:1011D00073FC5020FEF7FCFF9D48FFF75CFC0028E5
:1011E000EBD047210901994800F0D4F970BD1CB536
:1011F00000BF02216846C1700021817041700170FA
:1012000000BF282069460871FF2264219248FFF739
:1012100059F805226946904800F05FF91CBD70B589
:101220000546002400BF0CE0A00020188A4A81185F
:101230000522284600F024F9002800D170BD601C6A
:10124000C4B2142CF0DB0120F8E770B504460D465B
:10125000002C01D0002D01D1022070BD2046FFF7E7
:10126000DEFF002806D125222146284600F035F968
:101270000020F2E70120F0E710B58CB00446002C06
:1012800002D102200CB010BD05226F4901A800F068
:1012900024F92522214602A8013000F01EF900BFE2
:1012A0000A210BA8023041700D2008A9887300BFE5
:1012B0002C2101A8FFF70EFB0020E3E730B58BB02F
:1012C00004460D46282101A800F066F904222946AB
:1012D00001A800F002F9287969460872E2B22021DB
:1012E00002A80130FEF7EEFF252101A8FFF76FF9F4
:1012F0000BB030BD30B58BB005460024002D01D1B8
:101300000BB030BD01A92846FFF79FFF0446002C13
:1013100000D007E001A8FFF7AFFF0446002C00D083
:1013200000E0EDE701A92046FFF7C8FF00BFE7E7AF
:1013300070B500244948007801282FD11420FEF709
:1013400047FF00BF0CE04549091D0819FFF767FF7B
:10135000002803D121464248FFF7D1FB601C84B22C
:10136000FF2080008442EEDB0EE03D48FFF7B8FB33
:101370003A49091D45182846FFF7BCFF3848FFF7D2
:101380009BFB0A20FEF724FF3548FFF784FB00286B
:10139000EBD047210901314800F0FCF870BD00B5E1
:1013A00091B018222FA16846FEF7DCFE00BF012194
:1013B0006846C176002181764176017600BF112012
:1013C0006946087700BF022106A801720021C17199
:1013D000817100206946487700BF282106A8417224
:1013E00000BF78214173562101733421C17212214B
:1013F000817200BF00BF5921C1735621817300BFA4
:1014000001210174417416226946123000F065F81A
:1014100000BFFF2108A80230C177EE21817700BF0D
:1014200000BF0A21203041700D2010A9887000BF34
:101430002C2106A8FFF74EFA1048FEF7C9FE11B09E
:1014400000BD00000D0A000004000010EC080010B0
:101450005C0D0010F5030000540E00100C0000108D
:10146000700D0010000102030405060708090A0BAD
:101470000C0D0E0F10111213141500001027000090
:10148000034610B50B439B070FD1042A0DD308C8A0
:1014900010C9121FA342F8D018BA21BA884201D944
:1014A000012010BD0020C04310BD002A03D0D30787
:1014B00003D0521C07E0002010BD03780C78401CBC
:1014C000491C1B1B07D103780C78401C491C1B1BB3
:1014D00001D1921EF1D1184610BDF8B5042A2CD3C3
:1014E000830712D00B78491C0370401C521E8307DF
:1014F0000BD00B78491C0370401C521E830704D08C
:101500000B78491C0370401C521E8B079B0F05D0A3
:10151000C91ADF002023DE1B08C90AE0FEF722FEFD
:10152000F8BD1D4608C9FD401C46B4402C4310C000
:10153000121F042AF5D2F308C91A521EF0D40B78F0
:10154000491C0370401C521EEAD40B78491C0370DE
:10155000401C012AE4D409780170F8BD01E004C000
:10156000091F0429FBD28B0701D50280801CC90703
:1015700000D00270704700290BD0C30702D0027060
:10158000401C491E022904D3830702D50280801C17
:10159000891EE3E70022EEE70022DFE700220309CD
:1015A0008B422CD3030A8B4211D300239C464EE07E
:1015B00003460B433CD4002243088B4231D303093A
:1015C0008B421CD3030A8B4201D394463FE0C309EC
:1015D0008B4201D3CB01C01A524183098B4201D304
:1015E0008B01C01A524143098B4201D34B01C01AEF
:1015F000524103098B4201D30B01C01A5241C30867
:101600008B4201D3CB00C01A524183088B4201D3D5
:101610008B00C01A524143088B4201D34B00C01AC1
:101620005241411A00D201465241104670475DE0D6
:10163000CA0F00D04942031000D340425340002259
:101640009C4603098B422DD3030A8B4212D3FC2202
:10165000890112BA030A8B420CD3890192118B4281
:1016600008D3890192118B4204D389013AD0921197
:1016700000E08909C3098B4201D3CB01C01A524152
:1016800083098B4201D38B01C01A524143098B421B
:1016900001D34B01C01A524103098B4201D30B0104
:1016A000C01A5241C3088B4201D3CB00C01A524129
:1016B00083088B4201D38B00C01A5241D9D2430810
:1016C0008B4201D34B00C01A5241411A00D201464D
:1016D000634652415B10104601D34042002B00D5B7
:1016E0004942704763465B1000D3404201B5002079
:1016F000C046C04602BD7546FEF7F6FDAE46050083
:1017000069465346C008C000854618B020B5FEF7AC
:101710004FFD60BC00274908B6460026C0C5C0C5BD
:10172000C0C5C0C5C0C5C0C5C0C5C0C5403D4900D5
:101730008D467047704730B47446641E2578641C2B
:10174000AB4204D3635D5B00E31830BC18471D4611
:10175000F8E7000074170000000000100C00000003
:1017600004010000801700000C0000100C110000A4
:101770002001000000366E010000000000000000A3
:040000050000019D59
:00000001FF
