:020000040000FA
:10000000F80300109D010000AD010000A5010000F3
:1000100000000000000000000000000000000000E0
:10002000000000000000000000000000A701000028
:100030000000000000000000A9010000AB0100006A
:10004000AD010000AD0100000000000081070000CC
:1000500045090000790A000000000000AD01000021
:10006000AD010000AD010000AD010000AD010000D8
:10007000AD010000AD010000AD010000AD010000C8
:10008000AD010000AD010000AD010000AD010000B8
:10009000AD010000AD010000AD0100000000000056
:1000A000AD010000AD010000AD010000AD01000098
:1000B000AD010000AD010000AD010000AD01000088
:1000C00000F002F800F03EF80CA030C80838241800
:1000D0002D18A246671EAB4654465D46AC4201D180
:1000E00000F030F87E460F3E0FCCB6460126334274
:1000F00000D0FB1AA246AB46334318474414000015
:1001000064140000103A02D378C878C1FAD85207B4
:1001100001D330C830C101D504680C6070470000BD
:100120000023002400250026103A01D378C1FBD813
:10013000520700D330C100D50B6070471FB51FBDFB
:1001400010B510BD00F0A8F81146FFF7F7FF01F059
:1001500000F900F0C0F803B4FFF7F2FF03BC00F0B1
:10016000C5F8000070B505460C46164602E00FCCF7
:100170000FC5103E102EFAD2082E02D303CC03C5B1
:10018000083E042E07D301CC01C5361F03E02178B9
:100190002970641C6D1C761EF9D270BD074880471B
:1001A00007480047FEE7FEE7FEE7FEE7FEE7000040
:1001B00004480549034A054B704700005D040000F0
:1001C000C1000000F8010010F8030010F801001051
:1001D000F8B5042A2CD3830712D00B78491C03707E
:1001E000401C521E83070BD00B78491C0370401C27
:1001F000521E830704D00B78491C0370401C521E0A
:100200008B079B0F05D0C91ADF002023DE1B08C90E
:100210000AE0FFF7A7FFF8BD1D4608C9FD401C46D0
:10022000B4402C4310C0121F042AF5D2F308C91A97
:10023000521EF0D40B78491C0370401C521EEAD4A5
:100240000B78491C0370401C012AE4D40978017022
:10025000F8BD01E004C0091F0429FBD28B0701D5BA
:100260000280801CC90700D00270704700290BD0A3
:10027000C30702D00270401C491E022904D3830721
:1002800002D50280801C891EE3E70022EEE70022EF
:10029000DFE7704770477047754600F023F8AE46B9
:1002A000050069465346C008C000854618B020B511
:1002B000FFF77EFF60BC00274908B6460026C0C590
:1002C000C0C5C0C5C0C5C0C5C0C5C0C5C0C5403D0E
:1002D00049008D4670470446C046C0462046FFF799
:1002E0003AFF0000004870479801001001491820AB
:1002F000ABBEFEE72600020070470000FFFFFFFFD5
:1003000010B500247348406AC005000F030001F0D7
:1003100008F910090B0D0F11131517191B1D1F21BB
:100320002325272900241DE06B4C1BE06B4C19E0B2
:100330006B4C17E06B4C15E06B4C13E06B4C11E011
:100340006B4C0FE06B4C0DE06B4C0BE06B4C09E021
:100350006B4C07E06B4C05E06B4C03E06B4C01E031
:100360006B4C00BF00BF5B48406AC006800E811C1A
:10037000204601F029F8044656484030006B8007BB
:10038000800F002806D0012808D0022826D0032894
:1003900059D126E05F486049086054E04D4840303C
:1003A00000688007800F002806D0012808D00228A6
:1003B0000AD0032810D10BE05648574908600BE0DB
:1003C00054485549086007E000205349086003E09D
:1003D00050485149086000BF00BF34E04E480460F7
:1003E00031E03C48403000688007800F002806D08C
:1003F00001280ED0022816D0032822D117E0354854
:100400008068C006C00E401C42494843424908600B
:1004100017E030488068C006C00E401C3D49484384
:100420003D4908600DE000203B49086009E029488B
:100430008068C006C00E401C3649484336490860F3
:1004400000BF00BF00BF00BF22484030816B324870
:10045000006800F0B9FF3049086010BD10B51D48B4
:10046000803000682D4908431A4980310860002017
:100470001849403108600120486000BF15484030ED
:100480004068C007C00F0028F8D04120114988609B
:100490002348806B802188432149886300BF0D4831
:1004A000C068C007C00F0028F9D0032009494031B7
:1004B00008630120486300BF06484030406BC00716
:1004C000C00F0028F8D00120024940318863FFF7AF
:1004D00017FF10BD00800440C027090090051000E0
:1004E000C05C1500F0B31A00200B2000009F240010
:1004F000E0322900C0C62D0050973100E06735007A
:100500007038390000093D00401640008023430048
:10051000C0304600001BB70000000010800004003F
:1005200000820440014605E0002000E0401CF74A3C
:100530009042FBD30A46491E002AF5D17047F44881
:100540000068012149020843F1490860F0488038F9
:10055000406849158843EE4980394860084640683C
:1005600049150843EA49803948600020E949086094
:100570007047E9494143E74AD16000BFE54909684E
:10058000022211400029F9D0E24909681143E14AE9
:1005900011607047002904D1E04A12688243DF4BA2
:1005A0001A60012904D1DD4A12680243DB4B1A604C
:1005B0007047002904D1DA4A12688243D84B1A6086
:1005C000012904D1D64A12680243D54B1A607047FC
:1005D00000B501218806FFF7ECFF0121C806FFF7EF
:1005E000E8FF01210806FFF7E4FF01214806FFF7B5
:1005F000E0FF01218806FFF7CDFF0121C806FFF7C4
:10060000C9FF01210806FFF7C5FF01214806FFF7D2
:10061000C1FF00BD00B501218020FFF7CAFF012105
:100620000802FFF7C6FF0021FF200130FFF7B2FFED
:1006300001218020FFF7AEFF00BD00B50121480475
:10064000FFF7B7FF01218804FFF7B3FF0121C804BA
:10065000FFF7AFFF002101204004FFF79BFF0121BE
:100660008804FFF797FF0121C804FFF793FF00BD3F
:1006700000B501210803FFF79CFF002101200003C2
:10068000FFF788FF00BD00B5A1480068402108437E
:100690009F49086008460068802108439C4908601B
:1006A000FFF7E6FFFFF7C9FFFFF7B4FFFFF790FF83
:1006B00000BD01209B49C86070470120994908612D
:1006C00070479848C068042108439649C86070473D
:1006D000944800690421084392490861704710B5A5
:1006E00091480068000C00048F49086008460068C3
:1006F0000860084600680321490208438A490860E7
:1007000001208349486108460068012189030843A4
:100710007F4908600A4652691201E1235B025A438D
:1007200011467B4A403A926B804B1B685A431046F5
:1007300000F04AFE401E7B49086205200860FFF772
:10074000B8FF032000F01BFE85217948FFF79DFDCF
:1007500010BD70B505460C46002D01D0002C00DC04
:1007600070BD2246294672484530FFF731FD70487A
:100770004030C47000210171FFF7A3FF00BFEFE715
:1007800000B568488068C007C00F002814D06548CD
:100790004069C1B2664882788078401C644B98708A
:1007A000D81C8154C01E8078402802DB00201946E6
:1007B000887001205E4908705A488068042108400A
:1007C00000281ED05A484030C078002800D100BD13
:1007D0005748403001790079401CC2B2544840303B
:1007E0000271401D405C4F49C86151484030017959
:1007F000C078814205DBFFF76BFF00214C48403099
:10080000C17000BFE3E74B48C06804210843494971
:10081000C860704770B505460C46002D01D0002C0D
:1008200000DC70BD224629464348FFF7D1FC424810
:10083000401FC47000210171FFF7E5FF00BFF0E722
:1008400010B53B480078012810D10A20FFF76AFE56
:1008500037488178C01CFFF7DDFF0A20FFF762FEF2
:10086000852135484538FFF710FD10BD00BFFCE776
:1008700070473248C068042108433049C860704757
:100880002E480069042108432C4908617047012063
:100890002A49C860704710B5234840682849084075
:1008A00021494860084640681521090208431E494D
:1008B0004860084640680B21490408431A494860CB
:1008C000012013494861084600680121C903084313
:1008D0000F4908600A4652691201E1235B025A433C
:1008E00011460B4A403A926B104B1B685A43104614
:1008F00000F06AFD401E11490862052008600120D1
:10090000C860042000F03BFD10BD0000610900003C
:100910008080044000800040EE020000002100A022
:10092000002000A00040064000C000400000001071
:100930000800001000C0064057010010008006406B
:10094000FF0000FF00B5F8488068C007C00F00280E
:1009500014D0F5484069C1B2F44882788078401CD0
:10096000F24B9870D81C8154C01E8078402802DB5E
:100970000020194688700120EC490870EA48806818
:100980000421084000281ED0E8484030C0780028E4
:1009900000D100BDE548403001790079401CC2B269
:1009A000E24840300271401D405CDF49C861DF48C9
:1009B00040300179C078814205DBFFF761FF0021FB
:1009C000DA484030C17000BFE3E770B505460C4619
:1009D000002D01D0002C00DC70BD22462946D348F2
:1009E0004530FFF7F5FBD1484030C470002101715C
:1009F000FFF73FFF00BFEFE7CD4800690421084340
:100A0000CB490861704710B5CA48806880B2C949AF
:100A1000886008468068012109050843C549886047
:100A200008468068052149060843C24988600120BC
:100A3000C149486108460068012109040843BE49CC
:100A400008600A4652691201E1235B025A431146CB
:100A5000B94A403A926BB94B1B685A43104600F0B2
:100A6000B3FC401EB2490862052008600120C8603E
:100A7000052000F084FC10BD00B5AD488068C007BB
:100A8000C00F002814D0AA484069C1B2AC4882788F
:100A90008078401CAA4B9870D81C8154C01E807866
:100AA000402802DB0020194688700120A449087004
:100AB0009F4880680421084000281ED0A04840308C
:100AC000C078002800D100BD9D48403001790079F0
:100AD000401CC2B29A4840300271401D405C9449AB
:100AE000C861974840300179C078814205DBFFF743
:100AF00083FF002192484030C17000BFE3E710B58A
:100B00000446002C04DD01210803FFF743FD04E047
:100B1000002101200003FFF73DFD10BD00B50120BD
:100B2000FFF7EDFF7D20C000FFF7FCFC0020FFF782
:100B3000E6FF7D20C000FFF7F5FC00BD10B50446C0
:100B4000002C05DD002101204004FFF723FD03E018
:100B500001214804FFF71EFD10BD10B50446002C0E
:100B600005DD002101208004FFF714FD03E00121D1
:100B70008804FFF70FFD10BD10B50446002C05DDFD
:100B800000210120C004FFF705FD03E00121C80496
:100B9000FFF700FD10BD00B50120FFF7CFFF0120DA
:100BA000FFF7DBFF0120FFF7E7FF7D20C000FFF725
:100BB000B9FC0020FFF7C2FF0020FFF7CEFF0020A6
:100BC000FFF7DAFF7D20C000FFF7ACFC00BD10B5D9
:100BD0000446002C06D0012C0ED0022C16D0032C7B
:100BE00026D11CE00021FF200130FFF7D3FC0021BB
:100BF0008020FFF7CFFC25E00021FF200130FFF728
:100C0000C9FC01218020FFF7C5FC1BE0012108027F
:100C1000FFF7C0FC00218020FFF7BCFC12E001219F
:100C20000802FFF7B7FC01218020FFF7B3FC09E0C1
:100C30000021FF200130FFF7ADFC00218020FFF7ED
:100C4000A9FC00BF00BF10BD00B50020FFF7BFFF2B
:100C50007D20C000FFF766FC0320FFF7B8FF7D2072
:100C6000C000FFF75FFC00BD10B5364800780128D2
:100C700008D134488178C01CFFF76BFD85213148CD
:100C8000FFF703FB10BD10B528480078012808D1F4
:100C900026488178C01CFFF798FE85212348FFF77E
:100CA000F4FA10BD10B526480078012808D1244870
:100CB0008178C01CFFF7AEFD85212148FFF7E5FADA
:100CC00010BD08B520A00068009001216846FFF71C
:100CD00040FD0120FFF726FC08BD08B51AA00068FA
:100CE000009001216846FFF770FE0120FFF71AFC13
:100CF00008BD08B514A00068009001216846FFF700
:100D000089FD0120FFF70EFC08BD00B50021012080
:100D1000C006FFF73FFC1420FFF704FC0121C806C2
:100D2000FFF738FC00BD0000008006408D00001079
:100D300000C0064000C00040808004400000001059
:100D400012010010080000100100000000B57D2015
:100D5000C000FFF7E7FBFFF7D8FF7D20C000FFF7DB
:100D6000E1FB00BD00B5002101208006FFF712FC69
:100D7000FE48FFF7D7FB01218806FFF70BFC00BDFB
:100D800000B5FFF7EFFF00BD08B5F9A000680090BF
:100D900001216846FFF73EFD0120FFF7C3FB08BDB8
:100DA00000B500210120C006FFF7F4FBFA20FFF791
:100DB000B9FB0121C806FFF7EDFB00BD00B57D20A2
:100DC000C000FFF7AFFBFFF7EBFF7D20C000FFF790
:100DD000A9FB00BD08B5E7A00068009001216846A6
:100DE000FFF718FD0120FFF79DFB08BD3EB5E2A20D
:100DF00007CA6B4607C300240020E249087000BF01
:100E00008521E148FFF741FA0A216846FFF7DDFD39
:100E1000DE48FFF787FB002416E0DB48C01C005DBE
:100E20003A280FD1D848C01CA11C405C312809D1F8
:100E3000D548C01C211D405C312803D10120D14977
:100E4000087005E0601CC4B2CF488078A042E4DCA2
:100E500000BFCC4800780028D2D03EBD10B5024675
:100E60000B46002100BF07E0505C5C5CA04201D053
:100E7000012010BD481CC1B20329F5D30020F8E7BA
:100E800000B587B0C2A103C906910590C2A30FCBDC
:100E9000049301AB07C300BF8521BB48FFF7F5F9F9
:100EA000062105A8FFF791FD7D20C000FFF73AFB62
:100EB000B549C91C01A8FFF7D1FF002803D10220C2
:100EC000B049087003E0AF4800780128E4D000BFC3
:100ED00007B000BD00B587B0B3A30FCB069303AB3B
:100EE00007C3B5A103C90291019000BF8521A6489F
:100EF000FFF7CBF90C2103A8FFF767FD7D20C000A9
:100F0000FFF710FBA049C91C01A8FFF7A7FF0028A5
:100F100003D103209B49087003E09A480078022817
:100F2000E4D000BF07B000BD00B587B0A4A30FCBCD
:100F3000069303AB07C3A0A103C90291019000BFB0
:100F400085219148FFF7A1F90E2103A8FFF73DFD88
:100F50009F48FFF7E7FA8C49C91C01A8FFF77EFFFD
:100F6000002803D104208749087003E085480078F1
:100F70000328E5D000BF07B000BD00B591B028221E
:100F800094A107A8FFF7EEF818229CA101A8FFF78B
:100F9000E9F800BF85217C48FFF777F9262107A8EB
:100FA000FFF713FD8A48FFF7BDFA7749C91C01A86E
:100FB000FFF754FF002803D105207249087003E0B1
:100FC000704800780428E5D000BF11B000BD00B51E
:100FD00087B014228FA102A8FFF7C4F876A103C935
:100FE0000191009000BF85216748FFF74EF911215C
:100FF00002A8FFF7EAFC7D20C000FFF793FA6249E0
:10100000C91C6846FFF72AFF002803D106205D4966
:10101000087003E05B4800780528E4D000BF07B003
:1010200000BD00B587B080A30FCB069303AB07C309
:1010300061A103C90291019000BF85215248FFF7C9
:1010400024F90F2103A8FFF7C0FC7D20C000FFF7A3
:1010500069FA4D49C91C01A8FFF700FF002803D118
:1010600007204849087003E0464800780628E4D085
:1010700000BF07B000BD43480078072802D1082010
:101080004049087070470FB56BA30FCB03936B46B5
:1010900007C30FBD10B53B4800210170FFF7A6FE46
:1010A000FFF7EEFEFFF716FFFFF73EFFFFF765FFC6
:1010B000FFF78DFFFFF7B5FFFFF7DDFF10BD10B5A0
:1010C000042030490870FFF758FFFFF780FFFFF753
:1010D000A8FFFFF7D0FF10BD10B52B4800780128FE
:1010E0000FD12848007808280BD10A20FFF71AFAF8
:1010F00025488178C01CFFF768FC00202249087051
:10110000887010BD10B504464F480068000C0004FC
:101110004D490860084600680860084600680321D9
:101120004902084348490860012048494861084687
:101130000068012189030843444908600A4652694E
:10114000120162431146414A403A926B404B1B6880
:101150005A43104600F038F9401E3E490862052007
:101160000860FFF7A6FA032076E00000AC0D00004F
:101170000A0000000B00000041542B435245473F3A
:101180000D0A0000040000108D00001088130000FC
:10119000415445300D0A0000415445300D0A0D0AF6
:1011A0004F4B0D0A0000000041542B43474154545B
:1011B0003D310D0A000000000D0A4F4B0D0A0000E2
:1011C00041542B43474143543D312C310D0A00001B
:1011D000B80B000041542B43495053544152543DE5
:1011E0005443502C3132302E35352E3131372E319B
:1011F00030382C31303030300D0A00000D0A434FAA
:101200004E4E454354204F4B0D0A0D0A4F4B0D0ACD
:101210000000000041542B434950544346473D329F
:101220002C31300D0A00000041542B434950544DDD
:101230004F44453D310D0A0041542B434950434C26
:101240004F53450D0A00000000C00040808004405C
:10125000000000100040064000F091F885214B4846
:10126000FFF713F810BD08B549A0006800900321EE
:101270006846FFF76EFA08BD1CB546A103C9019187
:10128000009008216846FFF764FA1CBD08B543A02A
:101290000068009003216846FFF75BFA08BD10B5AF
:1012A0000320FFF794FC4B20C001FFF72BFF10BD7C
:1012B00010B57D20C000FFF735F9FFF7D4FF10BD52
:1012C00010B57D20C000FFF72DF9FFF7D5FF10BD49
:1012D000704710B50120FFF77AFCE1204002FFF7CC
:1012E00011FF10BD7FB58AB0044615461E46282161
:1012F0006846FEF7CCFF042221466846FEF768FFE9
:1013000008A8017B6846017132462946401DFEF758
:101310005FFF25216846FFF71CFA0EB070BD30B59F
:1013200089B01FA000680890282420221DA16846CB
:10133000FEF718FF2025FFF7CCFF2B466A46214613
:1013400008A8FFF7CFFF7D20C000FFF7EBF809B03A
:1013500030BD7D20C000FFF7E5F8FFF77FF8FFF70D
:1013600092F9FFF7ECF8FFF7BAF9FFF794FAFFF7F5
:101370004AFBFFF7AEFF01E0FFF7D1FFFCE7C20633
:10138000D20E012191400F4A1160704708000010F1
:10139000C1C1C100C0000000013A11ECC3C3C300C9
:1013A00000000002000102030405060708090A0BF9
:1013B0000C0D0E0F101112131415161718191A1BF5
:1013C0001C1D1E1F00E100E0002203098B422CD3EC
:1013D000030A8B4211D300239C464EE003460B4385
:1013E0003CD4002243088B4231D303098B421CD3E7
:1013F000030A8B4201D394463FE0C3098B4201D3D9
:10140000CB01C01A524183098B4201D38B01C01A10
:10141000524143098B4201D34B01C01A5241030987
:101420008B4201D30B01C01A5241C3088B4201D336
:10143000CB00C01A524183088B4201D38B00C01AE3
:10144000524143088B4201D34B00C01A5241411A0A
:1014500000D201465241104670475DE0CA0F00D0ED
:101460004942031000D34042534000229C460309E6
:101470008B422DD3030A8B4212D3FC22890112BA6C
:10148000030A8B420CD3890192118B4208D3890144
:1014900092118B4204D389013AD0921100E089095C
:1014A000C3098B4201D3CB01C01A524183098B423D
:1014B00001D38B01C01A524143098B4201D34B0126
:1014C000C01A524103098B4201D30B01C01A524189
:1014D000C3088B4201D3CB00C01A524183088B4210
:1014E00001D38B00C01A5241D9D243088B4201D399
:1014F0004B00C01A5241411A00D201466346524184
:101500005B10104601D34042002B00D54942704782
:1015100063465B1000D3404201B50020C046C04680
:1015200002BD30B47446641E2578641CAB4204D3FB
:10153000635D5B00E31830BC18471D46F8E7000008
:101540006015000000000010080000000401000009
:101550006815000008000010F003000020010000E2
:0815600000366E0100000000DE
:040000050000019D59
:00000001FF
