:020000040000FA
:10000000F00200109D010000AD010000A5010000FC
:1000100000000000000000000000000000000000E0
:10002000000000000000000000000000A701000028
:100030000000000000000000A9010000AB0100006A
:10004000AD010000AD01000000000000F506000059
:10005000AD010000AD01000000000000AD01000096
:10006000AD010000AD010000AD010000AD010000D8
:10007000AD010000AD010000AD010000AD010000C8
:10008000AD010000AD010000AD010000AD010000B8
:10009000AD010000AD010000AD0100000000000056
:1000A000AD010000AD010000AD010000AD01000098
:1000B000AD010000AD010000AD010000AD01000088
:1000C00000F002F800F03EF80CA030C80838241800
:1000D0002D18A246671EAB4654465D46AC4201D180
:1000E00000F030F87E460F3E0FCCB6460126334274
:1000F00000D0FB1AA246AB463343184790080000D5
:10010000B0080000103A02D378C878C1FAD8520774
:1001100001D330C830C101D504680C6070470000BD
:100120000023002400250026103A01D378C1FBD813
:10013000520700D330C100D50B6070471FB51FBDFB
:1001400010B510BD00F0A8F81146FFF7F7FF00F05A
:1001500040FB00F0C0F803B4FFF7F2FF03BC00F06F
:10016000C5F8000070B505460C46164602E00FCCF7
:100170000FC5103E102EFAD2082E02D303CC03C5B1
:10018000083E042E07D301CC01C5361F03E02178B9
:100190002970641C6D1C761EF9D270BD074880471B
:1001A00007480047FEE7FEE7FEE7FEE7FEE7000040
:1001B00004480549034A054B704700005D040000F0
:1001C000C1000000F0000010F0020010F00000106C
:1001D000F8B5042A2CD3830712D00B78491C03707E
:1001E000401C521E83070BD00B78491C0370401C27
:1001F000521E830704D00B78491C0370401C521E0A
:100200008B079B0F05D0C91ADF002023DE1B08C90E
:100210000AE0FFF7A7FFF8BD1D4608C9FD401C46D0
:10022000B4402C4310C0121F042AF5D2F308C91A97
:10023000521EF0D40B78491C0370401C521EEAD4A5
:100240000B78491C0370401C012AE4D40978017022
:10025000F8BD01E004C0091F0429FBD28B0701D5BA
:100260000280801CC90700D00270704700290BD0A3
:10027000C30702D00270401C491E022904D3830721
:1002800002D50280801C891EE3E70022EEE70022EF
:10029000DFE7704770477047754600F023F8AE46B9
:1002A000050069465346C008C000854618B020B511
:1002B000FFF77EFF60BC00274908B6460026C0C590
:1002C000C0C5C0C5C0C5C0C5C0C5C0C5C0C5403D0E
:1002D00049008D4670470446C046C0462046FFF799
:1002E0003AFF0000004870478C00001001491820B8
:1002F000ABBEFEE72600020070470000FFFFFFFFD5
:1003000010B500247348406AC005000F030000F0D8
:100310002EFB10090B0D0F11131517191B1D1F2193
:100320002325272900241DE06B4C1BE06B4C19E0B2
:100330006B4C17E06B4C15E06B4C13E06B4C11E011
:100340006B4C0FE06B4C0DE06B4C0BE06B4C09E021
:100350006B4C07E06B4C05E06B4C03E06B4C01E031
:100360006B4C00BF00BF5B48406AC006800E811C1A
:10037000204600F04FFA044656484030006B800794
:10038000800F002806D0012808D0022826D0032894
:1003900059D126E05F486049086054E04D4840303C
:1003A00000688007800F002806D0012808D00228A6
:1003B0000AD0032810D10BE05648574908600BE0DB
:1003C00054485549086007E000205349086003E09D
:1003D00050485149086000BF00BF34E04E480460F7
:1003E00031E03C48403000688007800F002806D08C
:1003F00001280ED0022816D0032822D117E0354854
:100400008068C006C00E401C42494843424908600B
:1004100017E030488068C006C00E401C3D49484384
:100420003D4908600DE000203B49086009E029488B
:100430008068C006C00E401C3649484336490860F3
:1004400000BF00BF00BF00BF22484030816B324870
:10045000006800F0DFF93049086010BD10B51D4894
:10046000803000682D4908431A4980310860002017
:100470001849403108600120486000BF15484030ED
:100480004068C007C00F0028F8D04120114988609B
:100490002348806B802188432149886300BF0D4831
:1004A000C068C007C00F0028F9D0032009494031B7
:1004B00008630120486300BF06484030406BC00716
:1004C000C00F0028F8D00120024940318863FFF7AF
:1004D00017FF10BD00800440C027090090051000E0
:1004E000C05C1500F0B31A00200B2000009F240010
:1004F000E0322900C0C62D0050973100E06735007A
:100500007038390000093D00401640008023430048
:10051000C0304600001BB70000000010800004003F
:1005200000820440014605E0002000E0401CAE4A85
:100530009042FBD30A46491E002AF5D17047AB48CA
:100540000068012149020843A8490860A74880388B
:10055000406849158843A549803948600846406885
:1005600049150843A149803948600020A049086026
:100570007047A04941439E4AD16000BF9C49096829
:10058000022211400029F9D0994909681143984A7B
:1005900011607047002904D1974A12688243964B34
:1005A0001A60012904D1944A12680243924B1A60DE
:1005B000704700B5914800680121090308438F493D
:1005C0000860002101200003FFF7E4FF00BD00B533
:1005D000864800684021084384490860084600684E
:1005E0008021084381490860FFF7E3FF00BD012037
:1005F0008349C8607047012081490861704780487D
:10060000C068042108437E49C86070477C4800697F
:10061000042108437A490861704710B57948006899
:10062000000C00047749086008460068042108436C
:100630007449086008460068086001206B494861F9
:1006400008460068012189030843684908600A4692
:1006500052691201E1235B025A431146634A403A50
:10066000926B694B1B685A43104600F0D3F8401E4A
:100670006349086205200860FFF7B9FF03200121E4
:100680008140624A116000BF85216148FFF7FDFD8E
:1006900010BD00B5002101200005FFF77BFF00BD64
:1006A00000B5002101204005FFF774FF00BD00B533
:1006B00001210805FFF76EFF00BD00B501214805C7
:1006C000FFF768FF00BD70B505460C46002D01D050
:1006D000002C00DC70BD224629464D484530FFF70E
:1006E00077FD4B484030C47000210171FFF787FF50
:1006F00000BFEFE700B542488068C007C00F002880
:1007000014D03F484069C1B2414882788078401C8B
:100710003F4B9870D81C8154C01E8078402802DB63
:1007200000201946887001203949087034488068D3
:100730000421084000281ED035484030C0780028E9
:1007400000D100BD3248403001790079401CC2B26E
:100750002F4840300271401D405C2949C8612C4837
:1007600040300179C078814205DBFFF74FFF00215F
:1007700027484030C17000BFE3E710B52448007837
:10078000012806D10A20FFF7CDFE85212048FFF77A
:100790007CFD10BD10B50446002C04DD01210803CA
:1007A000FFF7F8FE04E0002101200003FFF7F2FE4E
:1007B00010BD00B50120FFF7EDFF7D20C000FFF761
:1007C000B1FE0020FFF7E6FF7D20C000FFF7AAFE84
:1007D00000BDFFF743FEFFF7FAFEFFF7B0FE01E0B2
:1007E000FFF7E7FFFCE7000061090000808004409C
:1007F00000800040EE020000002100A0002000A0C8
:100800000040064000C000400000001000E100E091
:1008100004000010002203098B422CD3030A8B42F0
:1008200011D300239C464EE003460B433CD40022E8
:1008300043088B4231D303098B421CD3030A8B42FA
:1008400001D394463FE0C3098B4201D3CB01C01AC8
:10085000524183098B4201D38B01C01A5241430993
:100860008B4201D34B01C01A524103098B4201D381
:100870000B01C01A5241C3088B4201D3CB00C01AEE
:10088000524183088B4201D38B00C01A5241430866
:100890008B4201D34B00C01A5241411A00D201468B
:1008A0005241104670475DE0CA0F00D04942031024
:1008B00000D34042534000229C4603098B422DD373
:1008C000030A8B4212D3FC22890112BA030A8B421B
:1008D0000CD3890192118B4208D3890192118B426A
:1008E00004D389013AD0921100E08909C3098B42EF
:1008F00001D3CB01C01A524183098B4201D38B0132
:10090000C01A524143098B4201D34B01C01A5241D4
:1009100003098B4201D30B01C01A5241C3088B4219
:1009200001D3CB00C01A524183088B4201D38B0004
:10093000C01A5241D9D243088B4201D34B00C01A8E
:100940005241411A00D20146634652415B101046A3
:1009500001D34042002B00D54942704763465B10EB
:1009600000D3404201B50020C046C04602BD30B4AD
:100970007446641E2578641CAB4204D3635D5B003F
:10098000E31830BC18471D46F8E70000AC0900002A
:10099000000000100400000004010000B009000085
:1009A00004000010EC0200002001000000366E017F
:040000050000019D59
:00000001FF
