:020000040000FA
:10000000181100109D010000AD010000A5010000C5
:1000100000000000000000000000000000000000E0
:10002000000000000000000000000000A701000028
:100030000000000000000000A9010000AB0100006A
:10004000AD010000AD01000000000000FB05000054
:100050001B0700005508000000000000AD01000073
:10006000AD010000AD010000AD010000AD010000D8
:10007000AD010000AD010000AD010000AD010000C8
:10008000AD010000AD010000AD010000AD010000B8
:10009000AD010000AD010000AD0100000000000056
:1000A000AD010000AD010000AD010000AD01000098
:1000B000AD010000AD010000AD010000AD01000088
:1000C00000F002F800F03EF80CA030C80838241800
:1000D0002D18A246671EAB4654465D46AC4201D180
:1000E00000F030F87E460F3E0FCCB6460126334274
:1000F00000D0FB1AA246AB4633431847AC160000AB
:10010000CC160000103A02D378C878C1FAD852074A
:1001100001D330C830C101D504680C6070470000BD
:100120000023002400250026103A01D378C1FBD813
:10013000520700D330C100D50B6070471FB51FBDFB
:1001400010B510BD01F0F1FA1146FFF7F7FF01F00D
:1001500069F901F009FB03B4FFF7F2FF03BC01F0FA
:100160000DFB000070B505460C46164602E00FCCAC
:100170000FC5103E102EFAD2082E02D303CC03C5B1
:10018000083E042E07D301CC01C5361F03E02178B9
:100190002970641C6D1C761EF9D270BD074880471B
:1001A00007480047FEE7FEE7FEE7FEE7FEE7000040
:1001B00004480549034A054B704700005D040000F0
:1001C000C1000000180F001018110010180F0010C7
:1001D000014605E0002000E0401C194A9042FBD394
:1001E0000A46491E002AF5D17047164800680121C9
:1001F000490208431349086012488038406849158D
:1002000088431049803948600846406849150843CA
:100210000C498039486000200B49086070470B4941
:100220004143094AD16000BF0749096802221140D1
:100230000029F9D0044909681143034A1160704745
:10024000610900008080044000800040EE02000050
:10025000034610B50B439B070FD1042A0DD308C8E2
:1002600010C9121FA342F8D018BA21BA884201D986
:10027000012010BD0020C04310BD002A03D0D307C9
:1002800003D0521C07E0002010BD03780C78401CFE
:10029000491C1B1B07D103780C78401C491C1B1BF5
:1002A00001D1921EF1D1184610BDD2B210B5130281
:1002B0009A1813049A1800F00EF810BD01E004C05B
:1002C000091F0429FBD28B0701D50280801CC907B6
:1002D00000D00270704700290BD0C30702D0027013
:1002E000401C491E022904D3830702D50280801CCA
:1002F000891EE3E70022EEE70022DFE7FFFFFFFFB2
:1003000010B500247348406AC005000F030001F0D7
:100310003CFA10090B0D0F11131517191B1D1F2186
:100320002325272900241DE06B4C1BE06B4C19E0B2
:100330006B4C17E06B4C15E06B4C13E06B4C11E011
:100340006B4C0FE06B4C0DE06B4C0BE06B4C09E021
:100350006B4C07E06B4C05E06B4C03E06B4C01E031
:100360006B4C00BF00BF5B48406AC006800E811C1A
:10037000204601F02AF9044656484030006B8007B9
:10038000800F002806D0012808D0022826D0032894
:1003900059D126E05F486049086054E04D4840303C
:1003A00000688007800F002806D0012808D00228A6
:1003B0000AD0032810D10BE05648574908600BE0DB
:1003C00054485549086007E000205349086003E09D
:1003D00050485149086000BF00BF34E04E480460F7
:1003E00031E03C48403000688007800F002806D08C
:1003F00001280ED0022816D0032822D117E0354854
:100400008068C006C00E401C42494843424908600B
:1004100017E030488068C006C00E401C3D49484384
:100420003D4908600DE000203B49086009E029488B
:100430008068C006C00E401C3649484336490860F3
:1004400000BF00BF00BF00BF22484030816B324870
:10045000006801F0BAF83049086010BD10B51D48B9
:10046000803000682D4908431A4980310860002017
:100470001849403108600120486000BF15484030ED
:100480004068C007C00F0028F8D04120114988609B
:100490002348806B802188432149886300BF0D4831
:1004A000C068C007C00F0028F9D0032009494031B7
:1004B00008630120486300BF06484030406BC00716
:1004C000C00F0028F8D00120024940318863FFF7AF
:1004D00017FF10BD00800440C027090090051000E0
:1004E000C05C1500F0B31A00200B2000009F240010
:1004F000E0322900C0C62D0050973100E06735007A
:100500007038390000093D00401640008023430048
:10051000C0304600001BB70000000010800004003F
:100520000082044000210170418070470120F84999
:10053000C86070470120F64908617047F448C068F8
:1005400004210843F249C8607047F148006904215A
:100550000843EF490861704710B5EE480068000C89
:100560000004EC4908600846006808600846006816
:10057000032149020843E74908600120E649486130
:1005800008460068012189030843E34908600A46D8
:1005900052691201E1235B025A431146DE4A403A96
:1005A000926BDE4B1B685A43104601F00EF8401E5A
:1005B000D749086205200860FFF7B8FF032000F064
:1005C0009FF947210901D648FFF794FE10BD70B589
:1005D00005460C46002D01D0002C00DC70BD2246E3
:1005E0002946D04800F0B0FFCE49891F0C71002089
:1005F0004871FFF7A3FF00BFF0E700B5C44880686B
:10060000C007C00F002816D0C1484069C1B2C44815
:1006100042884088401CC24B5880181D8154001FDE
:10062000408821214901884202DB00201946488088
:100630000120BB490870B6488068042108400028A2
:100640001DD0B848801F0079002800D100BDB548F2
:10065000801F41794079401CB24A921F5071901D11
:10066000405CAB49C861104640791146097988421F
:1006700005DBFFF76AFF0020AA49891F087100BF48
:10068000E4E7A948C06804210843A749C860704747
:10069000A548006904210843A34908617047012067
:1006A000A149C860704710B59A4840689F49084002
:1006B0009849486008464068152109020843954951
:1006C0004860084640680B21490408439149486046
:1006D000012091494861084600680121C903084387
:1006E0008D4908600A4652691201E1235B025A43B0
:1006F0001146894A403A926B884B1B685A43104610
:1007000000F063FF401E8849086205200860012050
:10071000C860042000F0F4F810BD00B5824880687D
:10072000C007C00F002816D07F484069C1B280487A
:1007300042884088401C7E4B5880181D8154001F01
:10074000408821214901884202DB00201946488067
:100750000120774908707448806804210840002807
:1007600019D074480079002800D100BD7148417942
:100770004079401C6F4A5071901D405C6A49C861C5
:100780001046407911460979884204DBFFF780FF63
:1007900000206849087100BFE7E770B505460C46C0
:1007A000002D01D0002C00DC70BD22462946614896
:1007B000801D00F0C9FE5F490C7100204871FFF7F1
:1007C00060FF00BFF0E75C48C068042108435A4955
:1007D000C8607047584800690421084356490861B9
:1007E000704710B54B48806880B24A498860084617
:1007F00080680121090508434649886008468068E9
:10080000052149060843434988600120424948615F
:10081000084600680121090408433F4908600A4668
:1008200052691201E1235B025A4311463A4A403AA7
:10083000926B3A4B1B685A43104600F0C6FE401EAE
:100840003D490862052008600120C860052000F0CD
:1008500057F810BD00B538488068C007C00F0028A1
:1008600016D035484069C1B2344842884088401C9F
:10087000324B5880181D8154001F408821214901A6
:10088000884202DB00201946488001202B4908706D
:100890002948806804210840002819D02848007998
:1008A000002800D100BD264841794079401C244AE7
:1008B0005071901D405C2049C86110464079114636
:1008C0000979884204DBFFF785FF00201C49087185
:1008D00000BFE7E770B505460C46002D01D0002C9F
:1008E00000DC70BD224629461548801D00F02CFE14
:1008F00013490C7100204871FFF765FF00BFF0E756
:10090000C206D20E012191400E4A116070470000CC
:100910000040064000C000408080044000000010FD
:100920000C0000103204001000800640FF0000FFA1
:100930007C0400109C08001000C00640EC08001069
:100940000C0D001000E100E0002904D1F64A126805
:100950008243F54B1A60012904D1F34A126802431D
:10096000F14B1A607047002904D1F04A12688243A3
:10097000EE4B1A60012904D1EC4A12680243EB4B9A
:100980001A60704700B501218806FFF7ECFF0121CE
:10099000C806FFF7E8FF01210806FFF7E4FF012181
:1009A0004806FFF7E0FF01218806FFF7CDFF012190
:1009B000C806FFF7C9FF01210806FFF7C5FF01219F
:1009C0004806FFF7C1FF00BD00B501218020FFF7F9
:1009D000CAFF01210802FFF7C6FF0021FF200130F6
:1009E000FFF7B2FF01218020FFF7AEFF00BD00B589
:1009F00001214804FFF7B7FF01218804FFF7B3FF87
:100A00000121C804FFF7AFFF002101204004FFF7D8
:100A10009BFF01218804FFF797FF0121C804FFF71E
:100A200093FF00BD00B501210803FFF79CFF0021E3
:100A300001200003FFF788FF00BD00B5BC48006837
:100A400040210843BA4908600846006880210843ED
:100A5000B7490860FFF7E6FFFFF7C9FFFFF7B4FFEC
:100A6000FFF790FF00BD10B5B248007801280AD109
:100A70001420FFF7ADFBAF484188001DFFF72AFFA8
:100A8000AC48FFF74FFD10BD10B5AB48007801280A
:100A90000DD16420FFF79CFBA7484188001DFFF79C
:100AA00096FD0A20FFF794FBA348FFF73BFD10BD1E
:100AB00010B50446002C04DD01210803FFF744FFB4
:100AC00004E0002101200003FFF73EFF10BD10B538
:100AD0000120FFF7EDFF7D20C000FFF779FB00202C
:100AE000FFF7E6FF7D20C000FFF772FB10BD10B5D9
:100AF0000446002C05DD002101204004FFF724FFFF
:100B000003E001214804FFF71FFF10BD10B50446A4
:100B1000002C05DD002101208004FFF715FF03E014
:100B200001218804FFF710FF10BD10B50446002C0A
:100B300005DD00210120C004FFF706FF03E00121CD
:100B4000C804FFF701FF10BD10B50120FFF7CFFF6C
:100B50000120FFF7DBFF0120FFF7E7FF6420FFF72D
:100B600037FB0020FFF7C3FF0020FFF7CFFF002077
:100B7000FFF7DBFF6420FFF72BFB10BD10B5044629
:100B8000002C06D0012C0ED0022C16D0032C26D11E
:100B90001CE00021FF200130FFF7D6FE002180205D
:100BA000FFF7D2FE25E00021FF200130FFF7CCFE49
:100BB00001218020FFF7C8FE1BE001210802FFF79A
:100BC000C3FE00218020FFF7BFFE12E001210802D2
:100BD000FFF7BAFE01218020FFF7B6FE09E00021F1
:100BE000FF200130FFF7B0FE00218020FFF7ACFEB0
:100BF00000BF00BF10BD10B50020FFF7BFFF7D2074
:100C0000C000FFF7E5FA0320FFF7B8FF7D20C00022
:100C1000FFF7DEFA10BD10B546480078012807D16D
:100C200044484188001DFFF7D2FC4248FFF77AFC98
:100C300010BD10B541480078012807D13F484188D0
:100C4000001DFFF7AAFD3D48FFF76CFC10BD10B575
:100C50003948007801280AD10A20FFF7B9FA364846
:100C60004188001DFFF736FE3348FFF75BFC10BDDF
:100C700008B533A00068009001216846FFF7A7FC83
:100C80000120FFF7A5FA08BD08B52DA00068009067
:100C900001216846FFF781FD0120FFF799FA08BDA1
:100CA00008B527A00068009001216846FFF712FEF2
:100CB0000120FFF78DFA08BD10B500210120C00604
:100CC000FFF742FE1420FFF783FA0121C806FFF761
:100CD0003BFE10BD10B57D20C000FFF779FAFFF78D
:100CE000EBFF7D20C000FFF773FA10BD10B50021A7
:100CF00001208006FFF728FE1248FFF769FA01215C
:100D00008806FFF721FE10BD10B5FFF7EFFF10BDFD
:100D100008B50DA00068009001216846FFF7DAFDD4
:100D20000120FFF755FA08BD002100A0002000A017
:100D3000808004400C000010EC0800107C040010BF
:100D400001000000AC0D00000A00000010B50021F9
:100D50000120C006FFF7F8FDFA20FFF739FA01215C
:100D6000C806FFF7F1FD10BD10B57D20C000FFF7EC
:100D70002FFAFFF7EBFF7D20C000FFF729FA10BD27
:100D800008B5FDA00068009001216846FFF7A2FDAC
:100D90000120FFF71DFA08BD10B5F84800780128BA
:100DA0000FD1F748007808280BD10A20FFF710FA76
:100DB000F2484188001DFFF7F0FC0020EF49087061
:100DC000488010BD10B50446EE480068000C0004D1
:100DD000EC4908600846006808600846006803217E
:100DE00049020843E74908600120E749486108468D
:100DF0000068012189030843E34908600A465269F3
:100E0000120162431146E04A403A926BDF4B1B6885
:100E10005A43104600F0D9FB401EDD490862052008
:100E20000860FFF783FB032001218140D94A11604C
:100E300000BF47210901D848FFF75CFA10BD08B58B
:100E4000D6A00068009003216846FFF7C0FB08BDEC
:100E500010B50320FFF792FE4B20C001FFF7B2FF51
:100E600010BD08B5CDA0006800900521CC48FFF763
:100E700041FAFF20F530FFF7ABF9FFF7E9FFFF205C
:100E8000F530FFF7A5F903216846FFF7A0FB142012
:100E9000FFF79EF9C0480078012811D1BE480079BB
:100EA000C02809D10422BC49491DBD4800F04CFBB3
:100EB000B948807ABA490871B748FFF733FB06E0B2
:100EC0000521B748FFF706FDB348FFF72BFB08BD28
:100ED0001CB5B4A103C90191009008216846FFF731
:100EE00076FB1CBD08B5B1A00068009003216846E0
:100EF000FFF76DFB08BD10B57D20C000FFF768F956
:100F0000FFF79DFF10BD10B57D20C000FFF760F911
:100F1000FFF7DEFF10BD704710B50120FFF72EFE72
:100F2000E1204002FFF74EFF10BD7FB58AB00446B6
:100F300015461E4628216846FFF7DEF904222146A1
:100F4000684600F001FB08A8017B68460171324643
:100F50002946401D00F0F8FA25216846FFF737FBC7
:100F60000EB070BD30B589B091A0006808902824FB
:100F7000202290A16846FFF7F5F82025FFF7CCFF67
:100F80002B466A46214608A8FFF7CFFF7D20C00008
:100F9000FFF71EF909B030BD10B50020FFF7EEFDD8
:100FA000E1204002FFF70EFF10BD30B589B080A0F0
:100FB00000680890282420227EA16846FFF7D2F816
:100FC0002025FFF7E9FF2B466A46214608A8FFF7D0
:100FD000ACFF7D20C000FFF7FBF809B030BD38B58D
:100FE00004467CA00068009005226D492046FFF76A
:100FF0002FF9002808D120462A3002226946FFF73F
:1010000027F9002800D138BD0120FCE710B58CB0CD
:1010100004462C2101A8FFF76FF90522604901A8B9
:1010200000F092FAE2B2252102A80130FFF73DF963
:1010300000BF0A210BA8023041700D2008A9887357
:1010400000BF2C2101A8FFF745FC0CB010BD70B506
:1010500004460D46002C01D0002D01D1022070BDA8
:101060002046FFF7BCFF002806D12C222146284647
:1010700000F06AFA0020F2E70120F0E710B58AB02C
:101080000446002C02D102200AB010BD2522611DA9
:10109000684600F059FA25216846FFF798FA0020C3
:1010A000F2E730B58BB005460024002D01D10BB01E
:1010B00030BD69462846FFF7CAFF0446002C00D021
:1010C00007E06846FFF7DAFF0446002C00D000E096
:1010D000EDE72046FFF79AFF00BFE8E770B5002470
:1010E0003D48007801282ED16420FFF771F800BF39
:1010F0000CE03949091D0819FFF771FF002803D1D9
:101100002146364800F007FA601C84B23448844215
:10111000EFDB0EE0314800F0EFF92F49091D4518CB
:101120002846FFF7BEFF2D4800F0D2F95020FFF708
:101130004FF82A4800F0BBF90028EBD047210901FD
:101140002548FFF7D7F870BD1CB500BF02216846DF
:10115000C170002181704170017000BF2820694674
:101160000871FF2264211F48FFF79FF80522694696
:101170001C48FEF7F7FF1CBD0B0000007C040010AC
:101180000900001000C000408080044000000010F2
:101190000040064000E100E00C000010C1C1C100A9
:1011A00004000010C0000000013A11DCC3C3C300FA
:1011B00000000002000102030405060708090A0BEB
:1011C0000C0D0E0F101112131415161718191A1BE7
:1011D0001C1D1E1F0D0A0000EC080010C00D0010A1
:1011E000F50300005C0D001070B50546002400BF3B
:1011F0000CE0A00020189A4A811805222846FFF723
:1012000027F8002800D170BD601CC4B2142CF0DB9C
:101210000120F8E770B504460D46002C01D0002DE2
:1012200001D1022070BD2046FFF7DEFF002806D165
:1012300025222146284600F087F90020F2E7012008
:10124000F0E710B58CB00446002C02D102200CB09F
:1012500010BD0522834901A800F076F92522214618
:1012600002A8013000F070F900BF0A210BA802307B
:1012700041700D2008A9887300BF2C2101A8FFF739
:1012800029FB0020E3E730B58BB004460D4628214A
:1012900001A8FFF731F80422294601A800F054F90B
:1012A000287969460872E2B2202102A80130FEF7CF
:1012B000FCFF252101A8FFF78AF90BB030BD30B53E
:1012C0008BB005460024002D01D10BB030BD01A923
:1012D0002846FFF79FFF0446002C00D007E001A836
:1012E000FFF7AFFF0446002C00D000E0EDE701A9B6
:1012F0002046FFF7C8FF00BFE7E770B500245A4853
:10130000007801282FD11420FEF762FF00BF0CE007
:101310005549091D0819FFF767FF002803D1214629
:10132000524800F0F8F8601C84B2FF20800084422C
:10133000EEDB0EE04D4800F0DFF84B49091D451883
:101340002846FFF7BCFF494800F0C2F80A20FEF724
:101350003FFF464800F0ABF80028EBD047210901D9
:101360004148FEF7C7FF70BD00B591B0182240A1FB
:101370006846FEF7F7FE00BF01216846C1760021EE
:1013800081764176017600BF11206946087700BF5B
:10139000022106A801720021C171817100206946F5
:1013A000487700BF282106A8417200BF7821417309
:1013B000562101733421C1721221817200BF00BF16
:1013C0005921C1735621817300BF012101744174F9
:1013D00016226946123000F0B7F800BFFF2108A8B6
:1013E0000230C177EE21817700BF00BF0A21203093
:1013F00041700D2010A9887000BF2C2106A8FFF7AE
:1014000069FA2148FEF7E4FE11B000BD10B51F4A8D
:101410001F49182000F040F81E4A14491C2000F013
:101420003BF810BDFFF71AF86420FEF7D1FEFFF776
:1014300004FBFEF7DAFEFFF78FF8FFF734F9FFF74A
:10144000D0F9FFF7E3FFFFF70CFDFFF77DFEFFF795
:10145000A3FD03E0FFF742FEFFF74FFFFAE70000AE
:101460005C0D0010040000100C000010D40D0010E2
:10147000000102030405060708090A0B0C0D0E0FF4
:10148000101112131415000010270000E80D0010B1
:10149000C00D0010480E001010B50346084602614A
:1014A0000024446003608460641EC46010BD014673
:1014B0004868002801D1012070470020FCE7014660
:1014C0000A684868904201D1012070470020FCE77B
:1014D00000B502461046FFF7EAFF00280BD150681E
:1014E000401E50609068401C90601168906888426F
:1014F00001D10020906000BD00B502461046FFF704
:10150000D6FF002804D1916889001069405800BDB9
:101510000020C043FBE710B503460C461846FFF712
:10152000CEFF00280FD15868401C5860D868401C76
:10153000D8601968D868884201D10020D860D9687D
:1015400089001869445010BDF8B5042A2CD38307CC
:1015500012D00B78491C0370401C521E83070BD01D
:101560000B78491C0370401C521E830704D00B7873
:10157000491C0370401C521E8B079B0F05D0C91AD3
:10158000DF002023DE1B08C90AE0FEF7EBFDF8BDF3
:101590001D4608C9FD401C46B4402C4310C0121F14
:1015A000042AF5D2F308C91A521EF0D40B78491C4C
:1015B0000370401C521EEAD40B78491C0370401C77
:1015C000012AE4D409780170F8BD002203098B4296
:1015D0002CD3030A8B4211D300239C464EE00346D2
:1015E0000B433CD4002243088B4231D303098B4286
:1015F0001CD3030A8B4201D394463FE0C3098B42BC
:1016000001D3CB01C01A524183098B4201D38B0114
:10161000C01A524143098B4201D34B01C01A5241B7
:1016200003098B4201D30B01C01A5241C3088B42FC
:1016300001D3CB00C01A524183088B4201D38B00E7
:10164000C01A524143088B4201D34B00C01A524189
:10165000411A00D201465241104670475DE0CA0F60
:1016600000D04942031000D34042534000229C4620
:1016700003098B422DD3030A8B4212D3FC2289012A
:1016800012BA030A8B420CD3890192118B4208D300
:10169000890192118B4204D389013AD0921100E062
:1016A0008909C3098B4201D3CB01C01A5241830976
:1016B0008B4201D38B01C01A524143098B4201D3A3
:1016C0004B01C01A524103098B4201D30B01C01ACE
:1016D0005241C3088B4201D3CB00C01A5241830848
:1016E0008B4201D38B00C01A5241D9D243088B429E
:1016F00001D34B00C01A5241411A00D20146634641
:1017000052415B10104601D34042002B00D54942A4
:10171000704763465B1000D3404201B50020C046CD
:10172000C04602BD704770477047754600F022F80A
:10173000AE46050069465346C008C000854618B04D
:1017400020B5FEF735FD60BC00274908B6460026E7
:10175000C0C5C0C5C0C5C0C5C0C5C0C5C0C5C0C561
:10176000403D49008D4670470446C046C04620466D
:10177000FEF7F1FC00487047B80E00100149182030
:10178000ABBEFEE726000200704730B47446641E0C
:101790002578641CAB4204D3635D5B00E31830BC66
:1017A00018471D46F8E70000C817000000000010A9
:1017B0000C00000004010000D41700000C00001011
:1017C0000C1100002001000000366E010000000036
:0417D0000000000015
:040000050000019D59
:00000001FF
