:020000040000FA
:10000000F80300109D010000AD010000A5010000F3
:1000100000000000000000000000000000000000E0
:10002000000000000000000000000000A701000028
:100030000000000000000000A9010000AB0100006A
:10004000AD010000AD01000000000000B907000094
:10005000F9080000710A000000000000AD01000076
:10006000AD010000AD010000AD010000AD010000D8
:10007000AD010000AD010000AD010000AD010000C8
:10008000AD010000AD010000AD010000AD010000B8
:10009000AD010000AD010000AD0100000000000056
:1000A000AD010000AD010000AD010000AD01000098
:1000B000AD010000AD010000AD010000AD01000088
:1000C00000F002F800F03EF80CA030C80838241800
:1000D0002D18A246671EAB4654465D46AC4201D180
:1000E00000F030F87E460F3E0FCCB6460126334274
:1000F00000D0FB1AA246AB46334318478C120000CF
:10010000AC120000103A02D378C878C1FAD852076E
:1001100001D330C830C101D504680C6070470000BD
:100120000023002400250026103A01D378C1FBD813
:10013000520700D330C100D50B6070471FB51FBDFB
:1001400010B510BD00F0A8F81146FFF7F7FF00F05A
:10015000D3FF00F0C0F803B4FFF7F2FF03BC00F0D8
:10016000C5F8000070B505460C46164602E00FCCF7
:100170000FC5103E102EFAD2082E02D303CC03C5B1
:10018000083E042E07D301CC01C5361F03E02178B9
:100190002970641C6D1C761EF9D270BD074880471B
:1001A00007480047FEE7FEE7FEE7FEE7FEE7000040
:1001B00004480549034A054B704700005D040000F0
:1001C000C1000000F8010010F8030010F801001051
:1001D000F8B5042A2CD3830712D00B78491C03707E
:1001E000401C521E83070BD00B78491C0370401C27
:1001F000521E830704D00B78491C0370401C521E0A
:100200008B079B0F05D0C91ADF002023DE1B08C90E
:100210000AE0FFF7A7FFF8BD1D4608C9FD401C46D0
:10022000B4402C4310C0121F042AF5D2F308C91A97
:10023000521EF0D40B78491C0370401C521EEAD4A5
:100240000B78491C0370401C012AE4D40978017022
:10025000F8BD01E004C0091F0429FBD28B0701D5BA
:100260000280801CC90700D00270704700290BD0A3
:10027000C30702D00270401C491E022904D3830721
:1002800002D50280801C891EE3E70022EEE70022EF
:10029000DFE7704770477047754600F023F8AE46B9
:1002A000050069465346C008C000854618B020B511
:1002B000FFF77EFF60BC00274908B6460026C0C590
:1002C000C0C5C0C5C0C5C0C5C0C5C0C5C0C5403D0E
:1002D00049008D4670470446C046C0462046FFF799
:1002E0003AFF0000004870479801001001491820AB
:1002F000ABBEFEE72600020070470000FFFFFFFFD5
:1003000010B500247348406AC005000F030001F0D7
:100310002CF810090B0D0F11131517191B1D1F2198
:100320002325272900241DE06B4C1BE06B4C19E0B2
:100330006B4C17E06B4C15E06B4C13E06B4C11E011
:100340006B4C0FE06B4C0DE06B4C0BE06B4C09E021
:100350006B4C07E06B4C05E06B4C03E06B4C01E031
:100360006B4C00BF00BF5B48406AC006800E811C1A
:10037000204600F04DFF044656484030006B800791
:10038000800F002806D0012808D0022826D0032894
:1003900059D126E05F486049086054E04D4840303C
:1003A00000688007800F002806D0012808D00228A6
:1003B0000AD0032810D10BE05648574908600BE0DB
:1003C00054485549086007E000205349086003E09D
:1003D00050485149086000BF00BF34E04E480460F7
:1003E00031E03C48403000688007800F002806D08C
:1003F00001280ED0022816D0032822D117E0354854
:100400008068C006C00E401C42494843424908600B
:1004100017E030488068C006C00E401C3D49484384
:100420003D4908600DE000203B49086009E029488B
:100430008068C006C00E401C3649484336490860F3
:1004400000BF00BF00BF00BF22484030816B324870
:10045000006800F0DDFE3049086010BD10B51D4891
:10046000803000682D4908431A4980310860002017
:100470001849403108600120486000BF15484030ED
:100480004068C007C00F0028F8D04120114988609B
:100490002348806B802188432149886300BF0D4831
:1004A000C068C007C00F0028F9D0032009494031B7
:1004B00008630120486300BF06484030406BC00716
:1004C000C00F0028F8D00120024940318863FFF7AF
:1004D00017FF10BD00800440C027090090051000E0
:1004E000C05C1500F0B31A00200B2000009F240010
:1004F000E0322900C0C62D0050973100E06735007A
:100500007038390000093D00401640008023430048
:10051000C0304600001BB70000000010800004003F
:1005200000820440014605E0002000E0401CFE4A35
:100530009042FBD30A46491E002AF5D17047FB487A
:100540000068012149020843F8490860F7488038EB
:10055000406849158843F549803948600846406835
:1005600049150843F149803948600020F049086086
:100570007047F0494143EE4AD16000BFEC49096839
:10058000022211400029F9D0E94909681143E84ADB
:1005900011607047002904D1E74A12688243E64B94
:1005A0001A60012904D1E44A12680243E24B1A603E
:1005B000704700B500210120C006FFF7EBFF1420B3
:1005C000FFF7B0FF0121C806FFF7E4FF00BD00B54B
:1005D0007D20C000FFF7A6FFFFF7EBFF7D20C000E6
:1005E000FFF7A0FF00BD002904D1D44A126882435E
:1005F000D24B1A60012904D1D04A12680243CF4B72
:100600001A60704700B501218806FFF7ECFF012151
:10061000C806FFF7E8FF01210806FFF7E4FF012104
:100620004806FFF7E0FF01218806FFF7B3FF01212D
:10063000C806FFF7AFFF01210806FFF7ABFF012156
:100640004806FFF7A7FFFFF7C2FF00BD00B5012175
:100650008020FFF7C8FF01210802FFF7C4FF002137
:10066000FF200130FFF796FF01218020FFF792FF66
:1006700000BD00B501214804FFF7B5FF0121880442
:10068000FFF7B1FF0121C804FFF7ADFF00210120F2
:100690004004FFF77FFF01218804FFF77BFF012162
:1006A000C804FFF777FF00BD00B501210803FFF77D
:1006B0009AFF002101200003FFF76CFF00BD00B589
:1006C0009A48006840210843984908600846006835
:1006D0008021084395490860FFF7E6FFFFF7C9FF4F
:1006E000FFF7B4FFFFF78EFF00BD01209449C860FB
:1006F000704701209249086170479148C068042101
:1007000008438F49C86070478D4800690421084339
:100710008B490861704710B58A480068000C0004D6
:100720008849086008460068086008460068032198
:10073000490208438349086001207C494861084612
:100740000068012189030843784908600A46526914
:100750001201E1235B025A431146744A403A926BFC
:10076000794B1B685A43104600F052FD401E7449F5
:10077000086205200860FFF7B8FF032000F0D2FCF4
:1007800085217248FFF781FD10BD70B505460C4606
:10079000002D01D0002C00DC70BD224629466B489C
:1007A0004530FFF715FD69484030C47000210171E4
:1007B000FFF7A3FF00BFEFE700B561488068C007FF
:1007C000C00F002814D05E484069C1B25F488278EB
:1007D0008078401C5D4B9870D81C8154C01E807876
:1007E000402802DB00201946887001205749087014
:1007F000534880680421084000281ED053484030E8
:10080000C078002800D100BD5048403001790079FF
:10081000401CC2B24D4840300271401D405C484906
:10082000C8614A4840300179C078814205DBFFF752
:100830006BFF002145484030C17000BFE3E710B5B1
:1008400042480078012809D140488178C01CFFF750
:100850009CFF85213D48FFF718FD10BD00BFFCE758
:100860003B48C068042108433949C860704738488C
:100870000069042108433649086170470120344962
:10088000C860704710B52F484068324908402D496C
:100890004860084640681521090208432949486014
:1008A000084640680B214904084326494860012056
:1008B0001E494861084600680121C90308431B49D5
:1008C00008600A4652691201E1235B025A4311464D
:1008D000164A403A926B1C4B1B685A43104600F074
:1008E00097FC401E1A490862052008600120C86074
:1008F000042000F017FC10BD00B515488068C00743
:10090000C00F00282FD012484069C1B21248827827
:100910008078401C104B9870D81C8154C01E807881
:1009200040281DDB002019E06109000080800440A0
:1009300000800040EE020000002100A0002000A086
:100940000040064000C000400000001008000010F9
:1009500000800640FF0000FF8D00001019468870DF
:100960000120FA490870FA488068042108400028EC
:100970001ED0F6484030C078002800D100BDF348B2
:10098000403001790079401CC2B2F0484030027119
:10099000401D405CEE49C861EC4840300179C078A8
:1009A000814205DBFFF763FF0021E8484030C1705A
:1009B00000BFE3E770B505460C46002D01D0002CC2
:1009C00000DC70BD22462946E0484530FFF700FCB8
:1009D000DE484030C47000210171FFF741FF00BFC5
:1009E000EFE7DC48C06804210843DA49C860704773
:1009F000D848006904210843D6490861704710B5FA
:100A0000D548806880B2D449886008468068012152
:100A100009050843D04988600846806805214906D1
:100A20000843CD4988600120CC49486108460068E8
:100A3000012109040843C94908600A4652691201A4
:100A4000E1235B025A431146C44A403A926BC44BBD
:100A50001B685A43104600F0DBFB401EBD4908628C
:100A6000052008600120C860052000F05BFB10BD78
:100A700000B5B8488068C007C00F002814D0B5483A
:100A80004069C1B2B74882788078401CB54B9870F5
:100A9000D81C8154C01E8078402802DB00201946F3
:100AA00088700120AF490870AA4880680421084076
:100AB00000281ED0AB484030C078002800D100BDCF
:100AC000A848403001790079401CC2B2A5484030A6
:100AD0000271401D405C9F49C861A24840300179C5
:100AE000C078814205DBFFF783FF00219D4840303D
:100AF000C17000BFE3E770B505460C46002D01D07C
:100B0000002C00DC70BD2246294696484530FFF790
:100B10005FFB94484030C47000210171FFF761FF12
:100B200000BFEFE710B50446002C04DD01210803E7
:100B3000FFF730FD04E0002101200003FFF72AFD4C
:100B400010BD00B50120FFF7EDFF7D20C000FFF7CD
:100B5000E9FC0020FFF7E6FF7D20C000FFF7E2FC84
:100B600000BD10B50446002C05DD00210120400425
:100B7000FFF710FD03E001214804FFF70BFD10BD56
:100B800010B50446002C05DD002101208004FFF78C
:100B900001FD03E001218804FFF7FCFC10BD10B546
:100BA0000446002C05DD00210120C004FFF7F2FC03
:100BB00003E00121C804FFF7EDFC10BD00B50120E2
:100BC000FFF7CFFF0120FFF7DBFF0120FFF7E7FF73
:100BD0007D20C000FFF7A6FC0020FFF7C2FF002029
:100BE000FFF7CEFF0020FFF7DAFF7D20C000FFF700
:100BF00099FC00BD10B50446002C06D0012C0ED087
:100C0000022C16D0032C26D11CE00021FF2001303D
:100C1000FFF7C0FC00218020FFF7BCFC25E000218D
:100C2000FF200130FFF7B6FC01218020FFF7B2FC66
:100C30001BE001210802FFF7ADFC00218020FFF737
:100C4000A9FC12E001210802FFF7A4FC0121802089
:100C5000FFF7A0FC09E00021FF200130FFF79AFC1C
:100C600000218020FFF796FC00BF00BF10BD00B53B
:100C70000020FFF7BFFF7D20C000FFF753FC0320DB
:100C8000FFF7B8FF7D20C000FFF74CFC00BD10B59A
:100C900035480078012808D133488178C01CFFF717
:100CA00074FD85213048FFF7F0FA10BD10B52748D4
:100CB0000078012808D125488178C01CFFF77AFE0A
:100CC00085212248FFF7E1FA10BD10B525480078CC
:100CD000012808D123488178C01CFFF70CFF85212B
:100CE0002048FFF7D2FA10BD08B520A00068009098
:100CF00001216846FFF749FD0120FFF713FC08BDFD
:100D000008B51AA00068009001216846FFF752FE5E
:100D10000120FFF707FC08BD08B514A0006800908B
:100D200001216846FFF7E7FE0120FFF7FBFB08BD46
:100D300000B5002101208006FFF72CFC0C48FFF7CE
:100D4000F1FB01218806FFF725FC00BD8D00001096
:100D50000080064000C0064000C000408080044083
:100D60000000001012010010080000100100000037
:100D7000AC0D000000B5FFF7DBFF00BD08B5EDA02E
:100D80000068009001216846FFF7B5FE0120FFF7DB
:100D9000C9FB08BD00B500210120C006FFF7FAFB22
:100DA000FA20FFF7BFFB0121C806FFF7F3FB00BDE8
:100DB00000B57D20C000FFF7B5FBFFF7EBFF7D20FE
:100DC000C000FFF7AFFB00BD08B5DBA000680090D6
:100DD00001216846FFF78FFE0120FFF7A3FB08BD46
:100DE0003EB5D6A207CA6B4607C300240020D649E9
:100DF000087000BF8521D548FFF747FA0A216846E9
:100E0000FFF7D8FDD248FFF78DFB002416E0CF484E
:100E1000C01C005D3A280FD1CC48C01CA11C405C0E
:100E2000312809D1C948C01C211D405C312803D19B
:100E30000120C549087005E0601CC4B2C348807831
:100E4000A042E4DC00BFC04800780028D2D03EBDFC
:100E500010B502460B46002100BF07E0505C5C5C09
:100E6000A04201D0012010BD481CC1B20329F5D316
:100E70000020F8E700B587B0B6A103C90691059038
:100E8000B6A30FCB049301AB07C300BF8521AF48C6
:100E9000FFF7FBF9062105A8FFF78CFD7D20C000B8
:100EA000FFF740FBA949C91C01A8FFF7D1FF0028A3
:100EB00003D10220A449087003E0A3480078012868
:100EC000E4D000BF07B000BD00B587B0A7A30FCB2B
:100ED000069303AB07C3A9A103C90291019000BF08
:100EE00085219A48FFF7D1F90C2103A8FFF762FD8D
:100EF0007D20C000FFF716FB9449C91C01A8FFF72D
:100F0000A7FF002803D103208F49087003E08E4813
:100F100000780228E4D000BF07B000BD00B587B05C
:100F200098A30FCB069303AB07C394A103C9029107
:100F3000019000BF85218548FFF7A7F90E2103A87E
:100F4000FFF738FD9348FFF7EDFA8049C91C01A867
:100F5000FFF77EFF002803D104207B49087003E0DF
:100F6000794800780328E5D000BF07B000BD00B580
:100F700091B0282288A107A8FFF7F4F8182290A1C1
:100F800001A8FFF7EFF800BF85217048FFF77DF952
:100F9000262107A8FFF70EFD7E48FFF7C3FA6B492D
:100FA000C91C01A8FFF754FF002803D1052066499A
:100FB000087003E0644800780428E5D000BF11B051
:100FC00000BD00B587B0142283A102A8FFF7CAF8BC
:100FD0006AA103C90191009000BF85215B48FFF71A
:100FE00054F9112102A8FFF7E5FC7D20C000FFF7AE
:100FF00099FA5649C91C6846FFF72AFF002803D111
:1010000006205149087003E04F4800780528E4D0D5
:1010100000BF07B000BD00B587B074A30FCB069327
:1010200003AB07C355A103C90291019000BF8521FD
:101030004648FFF72AF90F2103A8FFF7BBFC7D20E4
:10104000C000FFF76FFA4149C91C01A8FFF700FF74
:10105000002803D107203C49087003E03A48007893
:101060000628E4D000BF07B000BD37480078072845
:1010700002D108203449087070470FB55FA30FCB29
:1010800003936B4607C30FBD10B52F4800210170B5
:10109000FFF7A6FEFFF7EEFEFFF716FFFFF73EFF96
:1010A000FFF765FFFFF78DFFFFF7B5FFFFF7DDFFE8
:1010B00010BD10B5042024490870FFF758FFFFF752
:1010C00080FFFFF7A8FFFFF7D0FF10BD10B51F4846
:1010D000007801280FD11C48007808280BD10A207D
:1010E000FFF720FA19488178C01CFFF763FC002045
:1010F00016490870887010BD7D20C000FFF712FAF5
:10110000FFF7ACF9FFF7DBFAFFF719FAFFF703FB7C
:10111000FFF7B8FBFFF773FCFFF7B6FF01E0FFF73F
:10112000D5FFFCE7C206D20E01219140374A11607B
:10113000704700000A0000000B00000041542B43E0
:101140005245473F0D0A0000040000108D000010BA
:1011500088130000415445300D0A000041544530C9
:101160000D0A0D0A4F4B0D0A0000000041542B439D
:10117000474154543D310D0A000000000D0A4F4B09
:101180000D0A000041542B43474143543D312C315B
:101190000D0A0000B80B000041542B434950535432
:1011A0004152543D5443502C3132302E35352E317E
:1011B00031372E3130382C31303030300D0A0000CC
:1011C0000D0A434F4E4E454354204F4B0D0A0D0A16
:1011D0004F4B0D0A0000000041542B43495054432B
:1011E00046473D322C31300D0A00000041542B435C
:1011F0004950544D4F44453D310D0A0041542B4355
:101200004950434C4F53450D0A00000000E100E0F7
:10121000002203098B422CD3030A8B4211D30023F3
:101220009C464EE003460B433CD4002243088B42CD
:1012300031D303098B421CD3030A8B4201D394465A
:101240003FE0C3098B4201D3CB01C01A524183094D
:101250008B4201D38B01C01A524143098B4201D307
:101260004B01C01A524103098B4201D30B01C01A32
:101270005241C3088B4201D3CB00C01A52418308AC
:101280008B4201D38B00C01A524143088B4201D3D9
:101290004B00C01A5241411A00D201465241104639
:1012A00070475DE0CA0F00D04942031000D34042AE
:1012B000534000229C4603098B422DD3030A8B42E4
:1012C00012D3FC22890112BA030A8B420CD3890182
:1012D00092118B4208D3890192118B4204D3890168
:1012E0003AD0921100E08909C3098B4201D3CB01A6
:1012F000C01A524183098B4201D38B01C01A52415B
:1013000043098B4201D34B01C01A524103098B425E
:1013100001D30B01C01A5241C3088B4201D3CB0049
:10132000C01A524183088B4201D38B00C01A52412C
:10133000D9D243088B4201D34B00C01A5241411A03
:1013400000D20146634652415B10104601D3404231
:10135000002B00D54942704763465B1000D34042E2
:1013600001B50020C046C04602BD30B47446641EBC
:101370002578641CAB4204D3635D5B00E31830BC8A
:1013800018471D46F8E70000A813000000000010F1
:101390000800000004010000B01300000800001065
:1013A000F00300002001000000366E010000000084
:040000050000019D59
:00000001FF
